S01800006275696C642F6D6963617A2F6D61696E2E73726563E5
S11300000C9449000C94C1040C94CB040C94D504B6
S11300100C94DF040C94E9040C94F3040C94490943
S11300200C94FD040C9468000C9468000C949009E2
S11300300C949E130C948B040C94A1040C9407054B
S11300400C947A040C949F0D0C9468000C94680032
S11300500C9468000C9468000C9468000C9468007C
S11300600C9496040C9468000C9468000C9468003A
S11300700C9468000C9468000C9468000C9468005C
S11300800C9468000C9468000C94680000081C1818
S1130090141011241FBECFEFD0E1DEBFCDBF11E09D
S11300A0A0E0B1E0ECE7FCE200E00BBF02C0079087
S11300B00D92AA30B107D9F712E0AAE0B1E001C06D
S11300C01D92AC32B107E1F70E945C120C943D160C
S11300D00C9400008FB7F894992708958FBF089562
S11300E07FB7F89462B720919B0130919C014091B5
S11300F09D0150919E0106B601FE0FC081B792B7D3
S1130100280F311D411D511D2F5F3F4F4F4F5F4F32
S1130110290F311D411D511D04C0260F311D411DE4
S1130120511D872F99278FBFCA01B9010895282F20
S11301309FB7F894662349F0E82FFF27EF57FE4F47
S11301408081882311F021E006C0E22FFF27EF57BA
S1130150FE4F608320E0892F99278FBF822F992734
S11301600895E82F8FB7F894282F332790E0FF27BE
S1130170EF57FE4F8081861709F491E02FBF892F36
S113018099270895882311F06E9A08956E9808951A
S1130190882311F06F9A08956F98089580E00E9463
S11301A0C200BA9ABB98B99A6C9A80E00E94C800BF
S11301B0709A6B986A98689881E00E94C2000895CA
S11301C00F931F93CF93DF93182F8FB7F894C82FF3
S11301D0DD270C2F61E080E00E949700882321F046
S11301E0CFBF85E090E024C0809106018823A1F46C
S11301F080911101823081F409C082E08093110161
S1130200109206010E94CE00B89AC0981093030180
S113021080E00FBF99270CC080911101882369F3F6
S11302208FB7F8949927109281018FBF81E0F1CFA5
S1130230DF91CF911F910F910895282F9FB7F894C4
S1130240E82FFF27E850FE4F80818F3F81F4E09133
S11302500802E21771F40BC02093F50104C0FF27D4
S1130260E850FE4F20832093080220E007C025E0D9
S113027005C08091F5018F3F91F7EECF892F992723
S11302808FBF822F992708951F93182F81E00E9412
S1130290C2001FB9779BFECF8FB199271F91089594
S11302A08F929F92AF92BF92CF92DF92EF92FF9282
S11302B00F931F93CF93DF938FB7F8949927C09030
S11302C08701D09088018090330190903401C091CF
S11302D06D01D0916E0120919F013091A0019AE0AF
S11302E0A92EB12CAC0EBD1E2A153B0508F45901EC
S11302F08FBF7401EC0EFD1E86010C0F1D1F14C070
S1130300C114D10419F0F801808101C080E00E9479
S113031044018114910411F0F7018083219608941B
S1130320E11CF11C0F5F1F4FC5010197C817D907C6
S113033038F381E00E94C8009FB7F894C114D10437
S113034031F0CC0EDD1EF60180818FB901C01FB8DB
S1130350D0936E01C0936D01892F99278FBF80E0E0
S113036090E0DF91CF911F910F91FF90EF90DF907C
S1130370CF90BF90AF909F908F9008952FB7F8942F
S113038033275093A00140939F0190938801809359
S11303908701709334016093330110926E011092BF
S11303A06D012FBF452B29F08FB10E945001992771
S11303B0089589E00E941D0180E090E008958FB7C0
S11303C0F8949927109283018FBF0895DF92EF92DA
S11303D0FF920F931F938FB7F894282F3327D22EB1
S11303E091B782B746B7981711F041FF02C02FBFEB
S11303F06AC08091A1018823E1F10E947000E0901D
S11304009401F0909501009196011091970120912B
S1130410D6013091D7014091D8015091D9016E197C
S11304207F09800B910B621773078407950720F0EF
S11304301092A10171E01EC02E0D3F1D401F511FDF
S113044080919B0190919C01A0919D01B0919E018E
S1130450281B390B4A0B5B0B273E3105410551051F
S113046040F4822F223010F070E005C070E082E08A
S113047002C070E086EE682F615000B601FCFDCF2B
S113048082B7681709F46F5F20919B0130919C013A
S113049040919D0150919E01DA01C9010196A11D6F
S11304A0B11D860F911DA11DB11D82179307A407CD
S11304B0B50710F4622F609561BFDFBE772319F092
S11304C08CE00E941D011F910F91FF90EF90DF902F
S11304D00895AFB7F894BB27E1E0E093A1016093DE
S11304E094017093950180939601909397012093C2
S11304F0D6013093D7014093D8015093D901AFBFAF
S11305000E94E601089580E88093690110926C01CD
S113051010928E011092990110920A020895CF93BD
S1130520DF93FC0115A6DC019E96ED011B821A8265
S1130530198280E886A7DF91CF9108952F923F9288
S11305404F925F926F927F928F929F92AF92BF92DF
S1130550CF92DF92EF92FF920F931F93CF93DF938B
S1130560CDB7DEB728970FB6F894DEBF0FBECDBF68
S11305702090730130907401409075015090760181
S11305806624772488244EE4A42E33E8B32ECC24A6
S1130590DD24EE24FF2400E010E0222D332D442D31
S11305A0552D662D772D882D90E00E942C142983DB
S11305B03A834B835C836D837E838F839887822EFB
S11305C0932EA42EB52E2401350100E20E942A1593
S11305D0A22EB32EC42ED52EC301B20196958795B3
S11305E0779567956A0D7B1D8C1D9D1D97FF05C032
S11305F09F776F5F7F4F8F4F9F4F6093730170930F
S11306007401809375019093760128960FB6F8943F
S1130610DEBF0FBECDBFDF91CF911F910F91FF9031
S1130620EF90DF90CF90BF90AF909F908F907F908E
S11306306F905F904F903F902F9008958FB7F894EC
S113064060916A0170916B012CB53DB506B602FE4E
S113065004C06F5F7F4F2CB53DB599278FBF8827A6
S11306609927CB017727662744275527622B732BBD
S1130670842B952B0895EF92FF920F931F930E9462
S11306801E037B018C012091780130917901409106
S11306907A0150917B018091ED019091EE01A0913E
S11306A0EF01B091F001820F931FA41FB51FE21652
S11306B0F3060407150730F082179307A407B5075C
S11306C058F005C082179307A407B507E0F5E816AC
S11306D0F9060A071B07B8F59C01AD012E193F095D
S11306E0400B510B213060E8360760E0460760E0BC
S11306F0560768F180E090E8A0E0B0E0E80EF91E4B
S11307000A1F1B1FE0927801F092790100937A018D
S113071010937B0180E090E8AFEFBFEFE80EF91E85
S11307200A1F1B1F20503048404050402093ED01C9
S11307303093EE014093EF015093F00120E030E854
S113074040E050E014C020E030E040E050E080930E
S1130750780190937901A0937A01B0937B01109270
S1130760ED011092EE011092EF011092F001A90137
S1130770B7012CB53DB5C9018E199F09039684179D
S1130780950720F0B9016D5F7F4F02C0640F751F9C
S11307906115710511F461E070E0615070407BBD3A
S11307A06ABD80E186BF87B7806187BF1F910F91C3
S11307B0FF90EF9008950F931F930FB7F8941127AC
S11307C0609378017093790180937A0190937B010F
S11307D02093ED013093EE014093EF015093F0012B
S11307E00E943B030FBF1F910F910895CF92DF9298
S11307F0EF92FF920F931F93CF93DF938C01F62E0A
S11308006A01E22E8FB7F894C82FDD2760E080E0FC
S11308100E94B100882321F0CFBF80E090E01EC089
S1130820CFBF0F0D111D802F80680E944401F82E48
S113083016950795802F807C0E9444010E2D0AC0D6
S1130840EE2DFF27E01BF109EC0DFD1D80810E94B8
S1130850440101500023A1F78F2D9927DF91CF91F7
S11308601F910F91FF90EF90DF90CF900895CF9359
S1130870DF93CDB7DEB724970FB6F894DEBF0FBE73
S1130880CDBF8FB7F894992720918C0130918D01B9
S11308902983232F33272A832091F6013091F701EE
S11308A02B83232F33272C838FBF24E0AE014F5F8C
S11308B05F4F60E088E691E00E94F60324960FB64D
S11308C0F894DEBF0FBECDBFDF91CF91089597B7E7
S11308D09F7D97BF90E296BF882319F08EB5806400
S11308E002C08EB58F7B8EBD87B7806287BF80E0E4
S11308F090E008951F920F920FB60F9211248F93D8
S113090083B783BF00B600FCFDCF8F910F900FBE5D
S11309100F901F90189578941F920F920FB60F9214
S113092011240F900FBE0F901F90189578941F926A
S11309300F920FB60F9211240F900FBE0F901F90BD
S1130940189578941F920F920FB60F9211242F933B
S11309503F938F939F932FB7F894332780916A0125
S113096090916B01019690936B0180936A012FBF64
S11309709F918F913F912F910F900FBE0F901F90D9
S113098018951F920F920FB60F9211240F900FBE5D
S11309900F901F9018951F920F920FB60F9211246B
S11309A00F900FBE0F901F9018951F920F920FB6C5
S11309B00F9211240F900FBE0F901F9018951F9245
S11309C00F920FB60F9211240F900FBE0F901F902D
S11309D018951F920F920FB60F9211240F900FBE0D
S11309E00F901F9018951F920F920FB60F9211241B
S11309F00F900FBE0F901F9018951F920F920FB675
S1130A000F9211240F900FBE0F901F9018951F92F4
S1130A100F920FB60F9211242F933F934F935F932E
S1130A206F937F938F939F93AF93BF93EF93FF93B2
S1130A3083B783BF00B600FCFDCF81B79927019629
S1130A40AA27BB2720919B0130919C0140919D01D5
S1130A5050919E01280F391F4A1F5B1F20939B0151
S1130A6030939C0140939D0150939E0178940E9481
S1130A70E601FF91EF91BF91AF919F918F917F918B
S1130A806F915F914F913F912F910F900FBE0F90F7
S1130A901F9018950F931F93182F0FB7F89461E0C8
S1130AA080E00E949700882371F5109303018091E0
S1130AB006018823A9F580911101823089F588E027
S1130AC00CC00E94CE0080911101882349F481E07A
S1130AD08093110110929A018AE00E941D012AC09C
S1130AE080910B028F3F31F5E0910501EE2311F166
S1130AF01CC01092040104C0FF27E55FFD4F108263
S1130B001092050117C081E090E002C0880F991F80
S1130B101A95E2F720911001282B209310010AC0A6
S1130B20809111018823E1F6CCCF809104018F3F9D
S1130B3019F7DFCF802F99278FBF80E090E01F91B6
S1130B400F9108951F9383E00E94E0009927182FC6
S1130B50882319F083E00E944A05812F99271F9169
S1130B6008951F9380911001882309F046C01091C5
S1130B7003011F3F09F041C060E00E94B1008823D7
S1130B80E1F181E080932E01809116018823C1F167
S1130B9010922E0185E090E041C0923049F5C09A50
S1130BA08091040190E08F3F09F491E09923D9F4F6
S1130BB08F3F19F42FEF30E00DC0282F3327F901B0
S1130BC0E55FFD4F8081809304018F3F11F4809392
S1130BD00501108320939A0181E0809311018AE03A
S1130BE00E941D0105C0109306011092110111C04D
S1130BF080911101882369F00FC081E090E00EC05C
S1130C008091060190911101882339F2923021F0EC
S1130C10EFCF80E00E94C20080E090E01F91089531
S1130C201F93CF93DF939FB7F894C92FDD271C2F11
S1130C3090910301981721F0CFBF81E090E03AC072
S1130C408FEF80930301309110013323F1F48FB7B8
S1130C50F8949927109281018FBF0E94B105CFBFEC
S1130C6011C02093030181E090E002C0880F991F16
S1130C704A95E2F7809538233093100188E00E946A
S1130C801D011FBF80E090E015C080E065E0E32F08
S1130C90FF270E94B415292F492F5527CF01042E71
S1130CA002C0959587950A94E2F780FDDACF822FEA
S1130CB08F5FEFCFDF91CF911F910895FF920F9334
S1130CC01F93CF93DF93F82E8B018FB7F894C82F1F
S1130CD0DD2760E080E00E94B100882321F0CFBFCF
S1130CE080E090E00CC0CFBF8F2D0E944401812F83
S1130CF099270E944401802F0E9444019927DF9183
S1130D00CF911F910F91FF9008951F931FB7F894EF
S1130D1080917001882319F460E070E009C060E0FC
S1130D208091F101882309F461E081E06827772745
S1130D3080917701882319F480E090E00AC090E064
S1130D4080918001882309F491E081E09827892F1C
S1130D509927762F6627770F770F770FA4E0880FF0
S1130D60991FAA95E1F7826E9262682B792B81E133
S1130D700E945E06812F99278FBF1F9108958FB718
S1130D80F89499276091EC018FBF85E0689FB001CA
S1130D901124625D7E4F706488E10E945E060895AE
S1130DA0EF92FF921F93CF93DF93E0907E01F09038
S1130DB07F01F70182A59927182F882309F413E0EE
S1130DC0C0988091F301811749F0612F77276F71E3
S1130DD07070606E706885E10E945E061093F30186
S1130DE0F70110818FB7F894C82FDD2760E080E009
S1130DF00E94B100882311F0CFBF12C0CFBF8EE391
S1130E0090E090939101809390018EE30E944401BD
S1130E101150412F552760E070E0C7010E94BE01C8
S1130E20DF91CF911F91FF90EF900895FF920F9360
S1130E301F93CF93DF93EA01F22E8B876E83672F84
S1130E4077276F832FB7F894332780918C01909183
S1130E508D012FBF8C83892F99278D832FB7F89409
S1130E60332780910701909108012FBF8887892F2C
S1130E709927898761E082E00E949700882319F00E
S1130E8085E090E06CC0809119018F5F8093190117
S1130E9081508B838FE38A878FB7F894082F1127AB
S1130EA062E081E00E94B100882329F40FBF0E9410
S1130EB0DF0181E053C08FB7F894992724E0209391
S1130EC082018FBFD0930702C09306020FBF8DE04B
S1130ED0F80EFE01F19289819927807290708983BE
S1130EE0118289819927816498688983892F992738
S1130EF081831CA618A619A61DA619AA18AA1FA69E
S1130F0080E88EA761E06093F2014091060250915F
S1130F1007028FB7F894282F3327809112019091FC
S1130F2013018830910511F0019711F02FBF15C0FE
S1130F3082E090E090931301809312016093850105
S1130F4050937F0140937E0110928F012FBF0E9426
S1130F50A205882311F40E94D00680E09927DF912E
S1130F60CF911F910F91FF90089510920201E0918B
S1130F703101F0913201309721F08091F40180FF2A
S1130F8008C081E080930201089581E00E941D0160
S1130F90089520812D50332767817727762F662780
S1130FA086819927682B792BAF0183850E941607C8
S1130FB0882359F70895AF92BF92CF92DF92EF92B0
S1130FC0FF920F931F935B016C016091220161FFFB
S1130FD01FC020911A0130911B0140911C015091B6
S1130FE01D01E0901E01F0901F010091200110915D
S1130FF02101D601C501821B930BA40BB50B8E15E1
S11310009F05A007B10720F0EAE1F1E0DD2422C04A
S1131010E3E2F1E060912B0161FF73C020912301B1
S1131020309124014091250150912601E09027013F
S1131030F09028010091290110912A01A21AB30A03
S1131040C40AD50AAE14BF04C006D10608F459C0B8
S113105071E0D72E60FF04C080858D7F808708C033
S11310602E0D3F1D401F511F208331834283538324
S113107081E0D81609F045C020910A0130910B0196
S11310802F5F3F4F30930B0120930A018091300171
S11310908823B9F520934201832F99278093410136
S11310A045E351E08FEF80933B0180933C0186E060
S11310B0809340018091310190913201892B09F58F
S11310C050933201409331018FE080933501809138
S11310D00201882399F01092020122E06FEF7FEF62
S11310E086E00E9416079927882341F0D0920201D6
S11310F01092320110923101882319F481E0809317
S113110030018DE00E941D011F910F91FF90EF901F
S1131110DF90CF90BF90AF9008951F93CF93DF934C
S1131120182F8FB7F894C82FDD2760E080E00E9465
S1131130B100882321F0CFBF80E090E005C0CFBF8D
S1131140812F0E9444019927DF91CF911F91089527
S1131150EF92FF920F931F93CF93DF93182F7B018E
S1131160042F8FB7F894C82FDD2760E080E00E9439
S1131170B100882321F0CFBF80E090E014C0CFBF3E
S11311801064812F992790939101809390010E947C
S11311904401182F402F5527B70180E090E00E94AA
S11311A0BE01812F9927DF91CF911F910F91FF905D
S11311B0EF900895C098609117017091180141E073
S11311C08FE30E94A808089582E090E09093720152
S11311D08093710181E080936C0120E030E0809184
S11311E00301843011F421E030E0232B29F484E05E
S11311F00E94E000882319F40E94DA08089584E02C
S11312000E944A0508951F93CF93DF938FB7F894F4
S1131210C82FDD271C2F8091710190917201892BB9
S113122029F484E00E941006CFBF1EC010926C0106
S113123080910A02882311F0B79904C00E9908C05E
S1131240882319F0815080930A020E94E4080BC09D
S113125081E090E0909372018093710110920A02F0
S113126084E00E9410061FBFDF91CF911F91089563
S11312700E948302C09AC09888E00E948D0888E08A
S11312800E948D08C09A84E00E9410060E940309FF
S113129008951F920F920FB60F9211242F933F932C
S11312A04F935F936F937F938F939F93AF93BF936A
S11312B0EF93FF938091710190917201019719F45A
S11312C00E94E40805C080910A028F5F80930A029D
S11312D0FF91EF91BF91AF919F918F917F916F910A
S11312E05F914F913F912F910F900FBE0F901F90E0
S11312F018951F93182F81E090E090931301809329
S11313001201109216010E94B1058FB7F894992723
S113131010930C018FBF84E00E941D011F9108955A
S113132078941F920F920FB60F9211242F923F922E
S11313304F925F926F927F928F929F92AF92BF92E1
S1131340CF92DF92EF92FF920F931F932F933F93CD
S11313504F935F936F937F938F939F93AF93BF93B9
S1131360EF93FF93CF93DF93CDB7DEB72F97F89426
S1131370DEBF7894CDBF2CB53DB53F872E8780E284
S113138086BF0E941E039B01AC018E859F857C0154
S113139000271127DA01C901A070B0708E159F05CE
S11313A0A007B10798F4212C312C7FEF472E7FEF53
S11313B0572E220E331E441E551E80E090E0AFEFE0
S11313C0BFEF282239224A225B220AC0212C312C69
S11313D06FEF462E6FEF562E2222332244225522DF
S11313E02E283F28402A512A8FB7F8948983809168
S11313F01201909113018530910521F0069709F0AF
S1131400DBC0BAC086E090E0909313018093120190
S113141091E09093980180E00E94670420917E01FE
S113142030917F01F90121AABB27A52D942D832D8D
S11314308A839B83AC83BD8380ABC201AA27BB276D
S11314408E839F83A887B98787A7852D9927AA2785
S1131450BB278A879B87AC87BD8786A7E0917E01DF
S1131460F0917F0185A5882309F464C080813C96AE
S11314708550E80FF11D94EF892E9FEF992E8E0E63
S11314809F1ED4012C9185EF682E8FEF782E6E0E5F
S11314907F1ED301EC90BF016A507040DB018C9138
S11314A03997A0809927AA27BB27BA2FA92F982F4D
S11314B08827332744275527522F442733272227A9
S11314C0FF24002711278701FF24EE242E293F291A
S11314D0402B512BBB24CC24DD242A293B294C2925
S11314E05D29822B932BA42BB52B82199309A40974
S11314F0B5098083292F3A2F4B2F5527FB012083D1
S11315009D0144275527F30120838B2F9927AA2770
S1131510BB27F4018083C098E0917E01F0917F01A4
S113152060816550772724E0A40180E090E00E9468
S1131530F603C09AE0917E01F0917F01818185FFDD
S113154003C0F1E0F093160183E00E94100687B710
S11315508F7E87BFA0917E01B0917F01FD018181C3
S11315608770813039F421AA2A8120AB3E8137A7C4
S11315708A8586A784996DC01092980181E00E94A3
S11315806704E0917E01F0917F01818185FF0FC0A6
S113159087E090E090931301809312010E941E0350
S11315A020E031E040E050E00E94DB0303C080E033
S11315B00E947909849B4DC080911401882349F5C8
S11315C011E0109398010E9467048091990188307A
S11315D098F4E0918E01E80FFF27E770F070EE0FAA
S11315E0FF1FEE0FFF1FE45FFD4F20823182428216
S11315F053828F5F8093990110931401AE85BF8548
S1131600B093DB01A093DA01849B03C0B981BFBF0F
S113161022C01092980181E00E9467041092140184
S11316208091DA019091DB01EE85FF85E81BF90BCF
S11316303A9778F480919901882319F08150809326
S1131640990180917E0190917F01009711F00E9491
S11316508F02F981FFBF2F96F894DEBFCDBFDF91D3
S1131660CF91FF91EF91BF91AF919F918F917F9116
S11316706F915F914F913F912F911F910F91FF9027
S1131680EF90DF90CF90BF90AF909F908F907F901E
S11316906F905F904F903F902F900F900FBE0F90E0
S11316A01F90189561E081E00E9497008823E9F477
S11316B08FB7F894282F332780910D0190910E0154
S11316C0892B11F02FBF20C081E090E090930E0190
S11316D080930D012FBFDD9A0E941E0324E130E0A8
S11316E040E050E00E94DB030FC062E081E00E9412
S11316F0B100882319F089E090E0089561E081E069
S11317000E94B100882319F080E090E0089585E0FC
S113171090E00895CF92DF92EF92FF920F931F9380
S1131720CFB6F894DD240E949E02DC01CB0166E46E
S113173070E00E94C015EBE0EE2EF12CE80EF91ECD
S1131740F0928A01E09289010E941E03002711276A
S1131750A80197010E94DB03CFBE1F910F91FF9058
S1131760EF90DF90CF9008951F93CF93DF938FB7BF
S1131770F894C82FDD271C2F80911201909113013A
S11317800897C9F489E00E948D0883E00E9410063E
S1131790C09A81E090E090931301809312018FB777
S11317A0F894992723E020930C018FBF84E00E94D2
S11317B01D01CFBF30C0C09880918501882311F0EE
S11317C085E001C084E00E948D0883FD09C080E0AB
S11317D00E948D0883FF04C085E090E020E003C0F0
S11317E083E090E021E09093130180931201C09A6A
S11317F01FBF222341F010928F0183E00E94100644
S11318000E948A0B08C00E941E0320E431E040E0DD
S113181050E00E94DB03DF91CF911F910895EF9276
S1131820FF920F931F93CF93DF938B0180919001CD
S11318309091910186FF2AC18F7B8F3309F078C183
S1131840C0911701D0911801588150932F018091B4
S11318507101909172018330910509F443C0843081
S1131860910509F48AC0029709F009C183E090E068
S1131870909372018093710140916901852F99279A
S11318800196242F3327281739074CF1B79906C03E
S11318900E9904C0451B41504093690140912F01AA
S11318A04A32E8F44423A1F0BE016F5F7F4F483011
S11318B018F047E050E007C084E090E09093720194
S11318C080937101552780E090E00E94BE0130C1F1
S11318D010926C01C09A84E00E941006CDC00E9450
S11318E0380926C184E090E09093720180937101DD
S11318F080917701882309F439C08091800188237D
S1131900A9F5898185FF32C08F814E812FB7F89464
S113191033276091F6017091F7012FBF9927982F13
S113192088275527842B952B8617970759F08F8185
S11319302E819927982F88273327822B932B8F5F0B
S11319409F4FA1F489818770813081F4C09AC09837
S11319508AE00E948D08C09AC09840912F01475098
S11319602896BE018FE30E94A808E2C040912F018F
S1131970475055272896BE01A6CFC09A80910A02E7
S1131980882319F484E00E94100680919901882329
S1131990A1F180912F018B30B0F1E0918E01FF27EE
S11319A0EE0FFF1FEE0FFF1FE45FFD4F208131811B
S11319B042815381E0911701F091180121ABBB27BB
S11319C0A52F942F832F80ABCA01AA27BB2787A7F3
S11319D0252F33274427552726A780918E01992741
S11319E0019668E070E00E94D41580938E01809186
S11319F0990181508093990106C0809117019091BB
S1131A0018010E948F0280912F01FE01E80FF11D41
S1131A10808187FF31C0012B79F169816770E09182
S1131A201701F0911801623019F5A0917E01B0916F
S1131A307F01109709F1809112019091130107978A
S1131A40D9F4ED019B8183819817B1F487B78F7E18
S1131A5087BF908181E08CA7E90FF11D82913196B7
S1131A6088A780818F7789A780E00E94790904C0C4
S1131A70613011F48BE02AC00E94030959C010920E
S1131A806C01C09A84E00E94100652C08E3309F0A3
S1131A904FC0C09A80911201909113010897C9F424
S1131AA0C09889E00E948D08C09A83E00E941006C5
S1131AB081E090E090931301809312018FB7F89422
S1131AC0992723E020930C018FBF84E00E941D011D
S1131AD02FC080918501882349F484E090E090939D
S1131AE01301809312010E94B40B22C083E00E9470
S1131AF0100683E090E090931301809312010E94FA
S1131B009E02DC01CB0166E371E00E94C015FBE09C
S1131B10EF2EF12CE80EF91EF0927D01E0927C018B
S1131B200E941E0300271127A80197010E94DB03CE
S1131B30DF91CF911F910F91FF90EF9008951F9225
S1131B400F920FB60F9211242F933F934F935F93ED
S1131B506F937F938F939F93AF93BF93EF93FF9371
S1131B602FB1E0913301F0913401309739F0809135
S1131B706D0190916E01E80FF91F208380916D0132
S1131B8090916E01019690936E0180936D0180E0B7
S1131B900E94C80040919F015091A00180916D0165
S1131BA090916E018417950718F40E9450011CC08F
S1131BB06091330170913401809187019091880183
S1131BC0109234011092330110928801109287010F
S1131BD01092A00110929F0110926E0110926D015B
S1131BE02FB120E00E940F0CFF91EF91BF91AF91B4
S1131BF09F918F917F916F915F914F913F912F9121
S1131C000F900FBE0F901F901895AF92BF92CF9276
S1131C10DF92EF92FF920F931F93CF93DF9386305F
S1131C2009F458C1873090F4823009F46CC08330D1
S1131C3030F4882331F1813009F016C44CC084306B
S1131C4009F4D0C0853008F029C1C6C08A3009F42F
S1131C5059C28B3038F4883009F47BC1893008F0DC
S1131C602EC23FC18C3009F44CC38C3008F460C2DE
S1131C708D3009F0F9C37AC32FBFF6C3C601B5018D
S1131C8072C38091F401882309F4EEC340E051E06B
S1131C909091F401852F8923C1F0E42FFF27EE0FE3
S1131CA0FF1FEF5CFE4F2081318111821082852F4E
S1131CB0809598239093F401442339F425533140BB
S1131CC009F0CFC310923001CCC34F5F483008F005
S1131CD0CBC3550FDDCF10910201E12FFF27EE0F8B
S1131CE0FF1FEF5CFE4FE080F180118210820E94A2
S1131CF0B507112309F0B8C355E3E51651E0F5061D
S1131D0009F0B2C3C8C00FB7F894112781E00E944C
S1131D10670481E0E82EF12CF0921301E0921201A5
S1131D2010921401109216011092F3010FBF0FB715
S1131D30F89411270E948302F0927201E0927101DB
S1131D4010926C0189B78F7B89BF80E488BF8AB702
S1131D5080628ABF8AB78F7E8ABF89B7806489BF51
S1131D600FBF8FB7F894082F112780910D01909120
S1131D700E01049719F483E00E948D080FBF0FB77A
S1131D80F8941127C09A80E00E9410060FBF8FB705
S1131D90F894992722E0209382018FBF0E9470005B
S1131DA0609323017093240180932501909326016D
S1131DB084EC99E0A0E0B0E080932701909328019F
S1131DC0A0932901B0932A0180912B018E7F826018
S1131DD080932B018DE0A9C18FB7F89499271092B5
S1131DE082017DC08FB7F89499278FBF63E081E0AB
S1131DF00E94B100882359F10FB7F894112710926B
S1131E0013011092120187B78F7E87BF87B78F7D2A
S1131E1087BF83E00E941006C09A0FBF0FB7F894E3
S1131E20112710927201109271010E948302C09ACC
S1131E3089B78F7B89BF0FBF10920E0110920D01DD
S1131E40DE98DD98DE9A83E00E941D0107C08FB7FB
S1131E50F894992722E0209382018FBFE090060234
S1131E60F09007020E94DF0180910201882309F0AB
S1131E70FBC200913101109132010E151F0509F0CA
S1131E80F3C210923201109231010E94B50705533A
S1131E90114009F0E9C210923001E6C28FB7F894FC
S1131EA0282F3327122F80916F01882309F0E4CE65
S1131EB081E080936F0180910D0190910E01049750
S1131EC021F481E00E944A0503C086E00E941D01BE
S1131ED01FBFCAC28FB7F894992710926F018FBFA2
S1131EE0C3C28FB7F894282F332780910F0188231A
S1131EF009F0C2CE2FBF80B3992716E09695879537
S1131F001A95E1F7182F117090912D0180918B0192
S1131F108917D9F01917C9F484E090E090930E0161
S1131F2080930D018FB7F894992721E020930F0136
S1131F308FBF60E070E08DE10E945E060E9437046E
S1131F40C09AC09882E00E941D0110938B0187E023
S1131F50ECC08FB7F8949927109103018FBF12300A
S1131F6009F460C0133030F4112359F0113009F032
S1131F707BC243C0133009F46FC0143009F074C23B
S1131F809BC0C0988FB7F894082F112780910D013A
S1131F9090910E01029779F583E090E090930E0101
S1131FA080930D0168E170E08DE10E945E0681E09E
S1131FB080932D0110920F0180B39927B6E0969576
S1131FC08795BA95E1F78170907080938B0187E0D3
S1131FD00E941D0181E00E948D086FE772E08CE190
S1131FE00E945E060E94BF060E94850666E57AE2AC
S1131FF087E10E945E060FBF37C2C09886E00E9448
S11320008D080E94BF060E9485060E943704C09A6C
S1132010C09883E00E948D08C09A81E00E94100657
S113202086E083C0C0988FB7F894082F112760E02A
S113203080E00E94B100882311F00FBF0AC00FBFD7
S113204083E50E94440180E00E94440180E00E94F4
S11320504401C09A82E02DC08FB7F894992720914B
S113206012018FBF243039F0283041F0223001F5BD
S11320700E94D006F9C10E94B40BF6C1C09889E051
S11320800E948D08C09A83E00E9410068FB7F894CE
S1132090992721E030E030931301209312018FBF80
S11320A08FB7F894992710930C018FBF84E03DC03B
S11320B083E00E941006D8C10E94DA08D5C10FB788
S11320C0F894112740919F015091A0016091330130
S11320D070913401809187019091880110923401AC
S11320E01092330110928801109287011092A0017E
S11320F010929F0110926E0110926D0120E00E94D7
S11321000F0C79CF2FB7F894332780919A018093DD
S1132110060182E0809311012FBF8091060188237C
S113212009F0A2C1B89AC09888E00E941D019CC120
S1132130A0911701B09118011C91FD01E10FF11D4F
S11321408081881F8827881FED018BA780818F7766
S113215089A73197808188A7E0911701F091180130
S11321608FB7F8949927209170018FBF2223F9F03B
S1132170878146812FB7F89433276091F6017091D7
S1132180F7012FBF9927982F88275527842B952B44
S11321908617970761F0878126819927982F8827CA
S11321A03327822B932B8F5F9F4F09F0A1C01D30E3
S11321B008F49EC0A0911701B0911801ED018A8521
S11321C08F3309F091C0898528859927582F442792
S11321D03327422B532B6B818FEF809309028FB7E8
S11321E0F894782F20E030E0ECEDF1E080819181EB
S11321F08417950731F48281861709F472C02093FD
S113220009022F5F3F4F33962430310579F77FBFA2
S1132210909109023FB7F8949F3F21F080911501F6
S1132220891799F420911501822F9927FC01EE0F4B
S1132230FF1FE80FF91FE452FE4F5183408362836E
S11322402F5F2370209315010CC0892F9927FC015F
S1132250EE0FFF1FE80FF91FE452FE4F5183408336
S11322606283832F99278FBFFD0183A5882309F4F7
S11322703BC0878146812FB7F894332760910701CB
S1132280709108012FBF9927982F88275527842BF1
S1132290952B8617970761F0ED018F812E81992781
S11322A0982F88273327822B932B8F5F9F4FE1F43E
S11322B0ED018B858630C1F41F30B1F4FD013D96EC
S11322C08D8580FF02C0DA9801C0DA9A808181FF8F
S11322D002C0D99801C0D99A808182FF04C0D898DD
S11322E003C07FBF01C0D89AB0931801A09317010F
S11322F08FB7F894992710926C018FBF0E9403093D
S1132300B3C080912C01882361F52091E8013091BC
S1132310E9014091EA015091EB01EFB7F894FF27EE
S1132320609194017091950180919601909197012B
S1132330E090D601F090D7010091D8011091D90115
S11323406E0D7F1D801F911FEFBF2093E801309316
S1132350E9014093EA015093EB0110922C010E9491
S113236069020E9470000E94DB077EC00E94700018
S11323705B016C018FB7F89499271092A1018FBF6C
S11323808091220181FF25C080911A0190911B0147
S1132390A0911C01B0911D01A6019501281B390BC8
S11323A04A0B5B0BE0901E01F0901F01009120018D
S11323B010912101E21AF30A040B150B3FEFE31607
S11323C03FEFF3063FEF03073FE7130711F061E028
S11323D009C06FEFE62E6FEFF62E6FEF062F6FE753
S11323E0162F60E080912B0181FF21C08091230191
S11323F090912401A0912501B0912601A601950197
S1132400281B390B4A0B5B0BDA01C9012091270108
S1132410309128014091290150912A01281B390B40
S11324204A0B5B0B2E153F054007510724F066232A
S1132430D9F0A801970112161306140615060CF01C
S11324401DCC2093E8013093E9014093EA015093B5
S1132450EB0181E080932C01C601B5010E94690261
S113246003C0550F41E014CCDF91CF911F910F9120
S1132470FF90EF90DF90CF90BF90AF900895809140
S1132480F5018F3FB1F0282F3327F901E850FE4FB3
S113249080818093F5018F3F11F4809308028FEFC0
S11324A080832F3F31F0822F0E94050E81E090E05F
S11324B0089580E090E00895CFEFD0E1DEBFCDBF76
S11324C01FB7F8944EE050E06FEF70E088EF91E0B2
S11324D00E94AD158FEF8093F5018093080281E08F
S11324E08EBD88E080BF83E083BF8CB59DB54AE78D
S11324F02CB53DB52817390708F44150442311F091
S1132500C901F6CF92B782B78917E9F32CB53DB567
S113251092B782B78917E9F38CB59DB5821B930BEB
S1132520409635E0969587953A95E1F79093930117
S11325308093920113BE83B78EBD8EB580BF12BE49
S11325401DBC1CBC8FEF86BF86B780937C0080B710
S1132550992787709070892BD1F7D29AD19AD09A03
S1132560DA9AD99AD89A15BA8FEF84BBD498DC98A2
S11325701DBC1CBC87B7846087BF8EB5887F846010
S11325808EBD80E285BF0E943F128823E1F7ECED07
S1132590F1E08FEF9FEF918380831282339621E0E5
S11325A0E83EF207C1F70E949E02609319018091F0
S11325B00001909101010196AA27BB278093730122
S11325C090937401A0937501B093760180B78860ED
S11325D080BF8BE083BF86EE81BF87B7826087BFF1
S11325E00E94E60182EA91E090931801809317011A
S11325F08E98B89A8C988FEF80930B021092810179
S1132600109282011092830110928401B89AD69A92
S1132610D59A8FB7F8949927209107013091080132
S11326208FBF3093F7012093F60180910901992718
S113263090938D0180938C0183E08093860189E1DE
S11326408093EC0181E0809370011092F1018093FA
S11326507701109280010E943F128823E1F7812FB5
S113266099278FBF78940E94520B8FB7F894482F04
S1132670552749C087B7992783709070892B19F41F
S1132680E5E0F0E013C080B7992787709070892B3C
S1132690D1F781B792B7891B8C3030F082B7853F70
S11326A018F4E3E0F0E002C0E2E0F0E087B7887BF2
S11326B0C1F480917D008B7FA1F46E9912C08AB120
S11326C090919A00892B807C61F48091740082FD42
S11326D008C0379B03C081E090E005C085E090E02E
S11326E002C080E090E025B78E1708F4E82FFF279A
S11326F0E457FF4FC895E02D237E2062E22BE5BF0F
S113270078948895F8948091F5018F3F09F4B2CFBD
S1132710282F3327F901E850FE4F80818093F5017B
S11327208F3F11F4809308028FEF80832F3F09F4C9
S1132730A1CF4FBF822F0E94050E97CF78941F928E
S11327400F920FB60F9211241F932F933F934F9321
S11327505F936F937F938F939F93AF93BF93EF9305
S1132760FF9387B78F7E87BF78941FB7F8948091C3
S1132770ED019091EE01A091EF01B091F00100976D
S1132780A105B10509F051C0809112019091130186
S11327908530910561F18630910530F483309105DF
S11327A049F0049781F51AC087309105F1F0089734
S11327B051F514C0869B0FC084E090E09093130100
S11327C0809312010E941E0327E030E040E050E0B5
S11327D00E94DB0318C00E948A0B15C00E94A20548
S11327E0882389F40E94B40B0EC080E00AC089E0FB
S11327F00E948D0881E00E94670483E00E94100615
S113280087E00E94790980910D0190910E01019752
S113281071F482E090E090930E0180930D01DE98B4
S1132820DE9A80E00E944A0502C00E943B03812F89
S113283099278FBFFF91EF91BF91AF919F918F9196
S11328407F916F915F914F913F912F911F910F90C5
S11328500FBE0F901F901895ACE2B0E0E2E3F4E1F4
S11328600C940616222E332E442E552E662E772EC9
S1132870882E992EFE013196A8E01192AA95E9F7C7
S113288029823A824B825C826D827E828F82988614
S1132890FE013996B8E01192BA95E9F7A986BA868D
S11328A0CB86DC86ED86FE860F87188B89819A811C
S11328B0AB81BC8189A79AA7ABA7BCA77C018D017A
S11328C08FEF9FEFA0E0B0E0E822F9220A231B2358
S11328D089A59AA5ABA5BCA51D01442455248985C9
S11328E09A85AB85BC858DA39EA3AFA3B8A75C01D5
S11328F06D018FEF9FEFA0E0B0E0A822B922CA22B9
S1132900DB228DA19EA1AFA1B8A53D018824992405
S1132910C801B701A60195010E94E71569A37AA32E
S11329208BA39CA3C801B701A40193010E94E715DE
S11329307B018C01C201B101A60195010E94E7153A
S11329405B016C01C201B101A40193010E94E7156E
S11329503B014C01EA0CFB1C0C1D1D1D89A19AA115
S1132960ABA1BCA19D01442755272E0D3F1D401F3F
S1132970511F2A153B054C055D0540F480E090E0AD
S1132980A1E0B0E0680E791E8A1E9B1ECA01AA2728
S1132990BB27860D971DA81DB91D8D8F9E8FAF8FE8
S11329A0B8A3A9013327222789A19AA1ABA1BCA16D
S11329B0A070B070280F391F4A1F5B1F298F3A8FF0
S11329C04B8F5C8FA98CBA8CCB8CDC8CED8CFE8C01
S11329D00F8D18A1FE01719698E011929A95E9F76E
S11329E0ED8AFE8A0F8B188F2D813E814F81588589
S11329F06DA17EA18FA198A50E94E7153B014C0112
S1132A002D853E854F85588969A57AA58BA59CA5FA
S1132A100E94E7152D893E894F89588D260F371F4F
S1132A20481F591F260D371D481D591D2D8B3E8BE0
S1132A304F8B588F6D887E888F88988C2A2D3B2DDC
S1132A404C2D5D2D662D772D882D992DE2E1AC96C8
S1132A500C942216A0E1B0E0E0E3F5E10C94061634
S1132A60222E332E442E552E662E772E882E992E06
S1132A70002309F466C088E0FE01319611928A951C
S1132A80E9F729833A834B835C836D837E838F824A
S1132A909887E0E2E01B1E16CCF52D813E814F8124
S1132AA05885602F772767FD7095DA01C901062ED6
S1132AB004C0B695A795979587950A94D2F78D8704
S1132AC09E87AF87B88B04C0220F331F441F551F46
S1132AD0EA95D2F789819A81AB81BC8104C0B6950D
S1132AE0A795979587956A95D2F7282B392B4A2B6A
S1132AF05B2B29873A874B875C8729843A844B84EC
S1132B005C846D847E848F8498881BC01D861E8699
S1132B101F86188A2E2F332727FD3095309521954F
S1132B203F4F8D819E81AF81B88504C0B695A7952E
S1132B30979587952A95D2F789879A87AB87BC871B
S1132B40DCCF222D332D442D552D662D772D882D48
S1132B50992DE2E160960C942216DC0101C06D937C
S1132B6041505040E0F70895991B79E004C0991F43
S1132B70961708F0961B881F7A95C9F780950895D3
S1132B80AA1BBB1B51E107C0AA1FBB1FA617B7078F
S1132B9010F0A61BB70B881F991F5A95A9F78095AB
S1132BA09095BC01CD01089597FB092E07260AD004
S1132BB077FD04D0E5DF06D000201AF47095619506
S1132BC07F4F0895F6F7909581959F4F0895629FE2
S1132BD0D001739FF001829FE00DF11D649FE00D11
S1132BE0F11D929FF00D839FF00D749FF00D659F72
S1132BF0F00D9927729FB00DE11DF91F639FB00D71
S1132C00E11DF91FBD01CF01112408952F923F92B8
S1132C104F925F926F927F928F929F92AF92BF92E8
S1132C20CF92DF92EF92FF920F931F93CF93DF9394
S1132C30CDB7DEB7CA1BDB0B0FB6F894DEBF0FBEF1
S1132C40CDBF09942A88398848885F846E847D843E
S1132C508C849B84AA84B984C884DF80EE80FD8040
S1132C600C811B81AA81B981CE0FD11D0FB6F894B6
S10F2C70DEBF0FBECDBFED010895FFCF05
S10D2C7C010001FFFFFFFF01002229
S9030000FC
