S01800006275696C642F6D696361322F6D61696E2E737265632D
S11300000C9488010C94A7010C94A7010C94A701EB
S11300100C94A7010C94A7010C94A7010C94A701BC
S11300200C94A7010C94A7010C94A7010C94A701AC
S11300300C94A7010C94A7010C94A7010C94D4046C
S11300400C94C3040C94B40D0C94A7010C94A70154
S11300500C94A7010C9498070C94A7010C94A70185
S11300600C94A7010C94A7010C94A7010C94A7016C
S11300700C94A7010C94A7010C94A7010C94A7015C
S11300800C94A7010C94A7010C94A7010000211063
S1130090422063308440A550C660E77008812991EE
S11300A04AA16BB18CC1ADD1CEE1EFF13112100296
S11300B073325222B5529442F772D662399318833E
S11300C07BB35AA3BDD39CC3FFF3DEE36224433462
S11300D020040114E664C774A44485546AA54BB58E
S11300E028850995EEE5CFF5ACC58DD55336722636
S11300F011163006D776F6669556B4465BB77AA7DE
S113010019973887DFF7FEE79DD7BCC7C448E55881
S11301108668A7784008611802282338CCC9EDD92D
S11301208EE9AFF9488969990AA92BB9F55AD44AD5
S1130130B77A966A711A500A333A122AFDDBDCCB7D
S1130140BFFB9EEB799B588B3BBB1AABA66C877CA1
S1130150E44CC55C222C033C600C411CAEED8FFDCD
S1130160ECCDCDDD2AAD0BBD688D499D977EB66E75
S1130170D55EF44E133E322E511E700E9FFFBEEF1D
S1130180DDDFFCCF1BBF3AAF599F788F8891A981DF
S1130190CAB1EBA10CD12DC14EF16FE18010A100C9
S11301A0C230E3200450254046706760B9839893B9
S11301B0FBA3DAB33DC31CD37FE35EF3B102901219
S11301C0F322D2323542145277625672EAB5CBA585
S11301D0A89589856EF54FE52CD50DC5E234C32469
S11301E0A01481046674476424540544DBA7FAB759
S11301F09987B8975FE77EF71DC73CD7D326F236B9
S11302009106B01657667676154634564CD96DC9A4
S11302100EF92FE9C899E9898AB9ABA94458654808
S113022006782768C018E1088238A3287DCB5CDBF8
S11302303FEB1EFBF98BD89BBBAB9ABB754A545A58
S1130240376A167AF10AD01AB32A923A2EFD0FEDC4
S11302506CDD4DCDAABD8BADE89DC98D267C076CA8
S1130260645C454CA23C832CE01CC10C1FEF3EFF98
S11302705DCF7CDF9BAFBABFD98FF89F176E367EF8
S1130280554E745E932EB23ED10EF01E00081C181B
S11302901410ABBA83AAAA3158000057F685035547
S11302A044020F60E0261C6B557081317C00007B9A
S11302B0F9AE02388C3280401026A16B5510F33110
S11302C051000050F74F030E44020F58E026A16B73
S11302D0557081315CE0005CDB4201AA8C328030D5
S11302E01026A16B5510F3314560004555BB039CA6
S11302F080020F68E026A16B5470813158000057CA
S1130300F685035590020F60E026A16B55708100BD
S113031011241FBECFEFD0E1DEBFCDBF11E0A0E0BE
S1130320B1E0ECE0F5E200E00BBF02C007900D92F3
S1130330AC30B107D9F711E0ACE0B1E001C01D92D7
S1130340AC3DB107E1F70E94270C0C9485120C9484
S113035000008FB7F894992708958FBF0895ECE8AB
S1130360F0E06927660FF11DE60FF11DC895982F7F
S1130370802D3196C89590250895880F949890E023
S113038087FF02C0979A01C097989698969A9F5FA4
S1130390973011F0880FF4CF979A9698969A949A7A
S11303A080E067FF02C0979A01C097989698969A42
S11303B08F5F883011F0660FF4CF949A979A969ACB
S11303C008956091980189E00E94BD0160E08BE08E
S11303D00E94BD0161E180E00E94BD018DE790E0D3
S11303E0019701960197E1F70895282F9FB7F89494
S11303F0E82FFF27E753FE4F80818F3F81F4E09180
S1130400D701E21771F40BC02093C80104C0FF2781
S1130410E753FE4F20832093D70120E007C025E057
S113042005C08091C8018F3F91F7EECF892F99279E
S11304308FBF822F992708952F923F924F925F92F8
S11304406F927F928F929F92AF92BF92CF92DF92E0
S1130450EF92FF920F931F93CF93DF93CDB7DEB745
S113046028970FB6F894DEBF0FBECDBF2090890148
S113047030908A0140908B0150908C01662477243F
S113048088244EE4A42E33E8B32ECC24DD24EE24B9
S1130490FF2400E010E0222D332D442D552D662D30
S11304A0772D882D90E00E94851029833A834B8311
S11304B05C836D837E838F839887822E932EA42EF4
S11304C0B52E2401350100E20E948311A22EB32E21
S11304D0C42ED52EC301B20196958795779567955D
S11304E06A0D7B1D8C1D9D1D97FF05C09F776F5F57
S11304F07F4F8F4F9F4F6093890170938A01809340
S11305008B0190938C0128960FB6F894DEBF0FBE32
S1130510CDBFDF91CF911F910F91FF90EF90DF90AE
S1130520CF90BF90AF909F908F907F906F905F908F
S11305304F903F902F9008958091BC01882319F02B
S11305402FE170E002C078E020E0622FEFB7F8946A
S11305508091D5018E7F8093D50187B1982F9F71AB
S1130560829586958695837019F080E090E012C09C
S1130570822F8850863118F081E090E00BC040E073
S113058050E03327892F99272817390711F441E0C0
S113059050E0CA01982F9170990F8091D50181780C
S11305A0262F2F71422F440F440F892B842B8093C5
S11305B0D501332727B9783059F580919901909165
S11305C09A0121E08638920718F087E090E01FC076
S11305D0833C910518F086E090E019C081369105BE
S11305E018F085E090E013C08033910518F084E0A2
S11305F090E00DC08831910518F083E090E007C0C9
S11306000C9718F082E090E002C080E090E0782F30
S11306107770887D872B886D992786B98E2F9927C7
S11306208FBF0895982F969596959695E9E5F1E0F4
S1130630E90FF11D877021E030E002C0220F331F63
S11306408A95E2F7808182239927089580910E018B
S1130650823069F480910501843019F085E080933B
S1130660050181E080930E0182E00E94F501089566
S113067061EE80E00E94BD016091C60189E00E94A4
S1130680BD018AEF90E0019701960197E1F760912F
S113069094018BE00E94BD0184E190E001970196F2
S11306A00197E1F70895E0910301F091040185A118
S11306B09927982F882726A13327822B932BCC9612
S11306C0209106013091070147A18217930710F486
S11306D0426001C04D7F47A387E00E94F50185E099
S11306E08093930108957FB7F89462B72091B6017F
S11306F03091B7014091B8015091B90106B601FE9D
S11307000FC081B792B7280F311D411D511D2F5FB6
S11307103F4F4F4F5F4F290F311D411D511D04C0E5
S1130720260F311D411D511D872F99278FBFCA01E7
S1130730B9010895EF920F931F93AE2D99E0899F0D
S1130740F0011124EF5EFE4F408351836283738373
S11307500483158326833783A17080858E7F8A2B3B
S1130760826080878BE00E94F5011F910F91EF90CA
S11307700895AF92BF92CF92DF92EF92FF920F93C0
S11307801F93F82E5A016B010E947303AB01BC0145
S1130790E1E0EE2E960185018F2D0E949A031F91B0
S11307A00F91FF90EF90DF90CF90BF90AF9008959E
S11307B0DF92EF92FF920F931F938FB7F894282F35
S11307C03327D22E91B782B746B7981711F041FF5D
S11307D002C02FBF6AC08091BD018823E1F10E944D
S11307E07303E0909B01F0909C0100919D01109196
S11307F09E012091BE013091BF014091C0015091F2
S1130800C1016E197F09800B910B6217730784076E
S1130810950720F01092BD0171E01EC02E0D3F1D02
S1130820401F511F8091B6019091B701A091B8016A
S1130830B091B901281B390B4A0B5B0B273E3105DC
S11308404105510540F4822F223010F070E005C0BC
S113085070E082E002C070E086EE682F615000B65E
S113086001FCFDCF82B7681709F46F5F2091B601D0
S11308703091B7014091B8015091B901DA01C90131
S11308800196A11DB11D860F911DA11DB11D8217D9
S11308909307A407B50710F4622F609561BFDFBE0C
S11308A0772319F08AE00E94F5011F910F91FF90C0
S11308B0EF90DF900895AFB7F894BB27E1E0E093A1
S11308C0BD0160939B0170939C0180939D01909363
S11308D09E012093BE013093BF014093C001509309
S11308E0C101AFBF0E94D80308956FE380E00E9466
S11308F0BD0160E08BE00E94BD01089582E0809319
S1130900930110928E0110928D010E94E101BB9817
S1130910BA9880EC8DB9B898089566EA8EE00E9482
S1130920BD0194988CE120E030E087FF02C0979AE3
S113093001C097989698969A2F5F3F4F27303105BC
S113094011F0880FF2CF97989698969A8F98949A68
S113095080E096989927879B04C0880F991F81602F
S113096001C0880F969A215030409FEF2F3F3907DE
S113097081F7949A8F9A979A83FFD3CF66E28EE099
S11309800E94BD0108951F920F920FB60F92112479
S11309908F9383B783BF00B600FCFDCF8F910F9078
S11309A00FBE0F901F9018951F920F920FB60F92C3
S11309B011242F933F934F935F936F937F938F9360
S11309C09F93AF93BF93EF93FF9383B783BF00B617
S11309D000FCFDCF81B799270196AA27BB27209158
S11309E0B6013091B7014091B8015091B901280F77
S11309F0391F4A1F5B1F2093B6013093B701409300
S1130A00B8015093B90178940E94D803FF91EF91F3
S1130A10BF91AF919F918F917F916F915F914F9112
S1130A203F912F910F900FBE0F901F9018958091BA
S1130A3008018130A1F480911001813021F488E013
S1130A400E94F50109C0823051F480919001809395
S1130A50080183E08093100180E090E0089581E034
S1130A6090E008951F93982F80910501843031F50B
S1130A7090930501809110018823A9F412E010934A
S1130A80100110929001379A0E9417058091080175
S1130A908823B9F081E08093100110929001379A75
S1130AA00E94170514C080E00E941203882379F481
S1130AB08091590181608093590109C09093280164
S1130AC006C01093B5011092BC010E949C0280E004
S1130AD090E01F9108950F931F936BE380E00E94B1
S1130AE0BD0180ED97E0019701960197E1F769E375
S1130AF080E00E94BD0188EC90E001970196019787
S1130B00E1F70FB7F89411270E947E040FBF1F91DD
S1130B100F91089580910E01843069F1853019F1A7
S1130B20813091F58091190181FD2EC090E0809172
S1130B308F018F3108F091E0992381F08091550164
S1130B4090915601892B29F440E05AE060E070E06E
S1130B500EC04EE150E060E070E009C040E850E0B3
S1130B6060E070E004C041E050E060E070E080E0EC
S1130B700E94B9030895409155015091560166278A
S1130B80772780E00E94B90308951F93CF93DF93E2
S1130B90EA01422F8E836983672F772768832FB7F3
S1130BA0F89433278091090190910A012FBF8B8318
S1130BB0892F99278A8382E28D838FB7F894282F0F
S1130BC033279091DB0191FD04C080919301882328
S1130BD021F42FBF81E090E061C092609093DB012B
S1130BE04C83D0935C01C0935B012FBF1FB7F89473
S1130BF08091960182608093960180910E018430E9
S1130C0011F40E94F5018091960180FD0BC00E94B1
S1130C101C026F7170706F5F7F4F7093BB016093A4
S1130C20BA0106C081E090E09093BB018093BA01C1
S1130C30FE01B5968DA12EA19927782F662733271B
S1130C40622B732B77FD05C060915501709156019D
S1130C5002C060957095118210826115710529F4A6
S1130C6066E070E080E090E010C08827992726E6CF
S1130C7032E040E050E00E940D12672F782F892F58
S1130C8099276A5E7F4F8F4F9F4F7093B201609395
S1130C90B101812F99278FBF80E090E0DF91CF9140
S1130CA01F91089510920201E0912601F09127010D
S1130CB0309721F08091C70180FF08C081E08093C4
S1130CC00201089581E00E94F501089524813327EB
S1130CD060817727762F662781819927682B792B66
S1130CE0AF0186810E94C505882361F70895AF92FC
S1130CF0BF92CF92DF92EF92FF920F931F935B010B
S1130D006C016091190161FF1FC0209111013091A4
S1130D1012014091130150911401E0901501F090DB
S1130D2016010091170110911801D601C501821B0B
S1130D30930BA40BB50B8E159F05A007B10720F0EC
S1130D40E1E1F1E0DD2422C0EAE1F1E06091220179
S1130D5061FFB1C020911A0130911B0140911C0127
S1130D6050911D01E0901E01F0901F01009120019F
S1130D7010912101A21AB30AC40AD50AAE14BF0401
S1130D80C006D10608F497C071E0D72E60FF04C0F6
S1130D9080858D7F808708C02E0D3F1D401F511F09
S1130DA02083318342835383DD2029F081E0D816E8
S1130DB009F081C03BC08FB7F894082F1127F02E9B
S1130DC080910E018430B9F08530F9F0813051F50D
S1130DD090E080919301833009F491E0992311F517
S1130DE080910501843019F085E08093050181E04C
S1130DF00E94320517C085E080930E011092D6013F
S1130E0069E380E00E94BD010DC00E94E10183E01E
S1130E100E94320580E590E0019701960197E1F781
S1130E200FBF49C00E948A05FFBE45C020910C0136
S1130E3030910D012F5F3F4F30930D0120930C0132
S1130E40809125018823B9F520933101832F9927B7
S1130E508093300149E251E08FEF80932A0180931F
S1130E60290186E080932F0180912601909127012A
S1130E70892B09F5509327014093260182E0809342
S1130E802D0180910201882399F01092020122E041
S1130E906FEF7FEF86E00E94C5059927882341F014
S1130EA0D09202011092270110922601882319F48E
S1130EB081E0809325018BE00E94F5011F910F9141
S1130EC0FF90EF90DF90CF90BF90AF900895CF93B5
S1130ED0DF938FB7F894C82FDD2780910E01882304
S1130EE009F591E0909393018091DB018D7F8460FB
S1130EF08093DB0180910501843019F085E08093B3
S1130F00050190930E0182E00E94F5018091960103
S1130F108D7F80939601CFBF0E946B0583E00E9472
S1130F20F50101C0CFBF80E090E0DF91CF9108953B
S1130F301F920F920FB60F921124EF92FF920F930C
S1130F401F932F933F934F935F936F937F938F934D
S1130F509F93AF93BF93CF93DF93EF93FF93C4B16A
S1130F60D5B178948FB7F89499272091D501322F71
S1130F703695317021708FBF222309F01EC133983A
S1130F808091B501813021F0823009F04AC10AC054
S1130F90332351F0D0935801C093570189E00E9444
S1130FA0F5013FC1332319F40E949C023AC1109207
S1130FB0B5018091BC01882309F033C1EFB6F894E0
S1130FC080910501813089F0813030F08230B1F0B8
S1130FD0833009F09CC056C0E0910301F0910401F4
S1130FE0C6A38D2F992785A392C0D0939201C09355
S1130FF0910185E00E94F50184E069C02091D60149
S11310002F5F2093D60180910601909107010C96E1
S11310108C179D0740F4809197018F5F809397010F
S1131020882339F402C0109297018091960180FFC1
S113103018C083E080930E0187E08093930110929F
S11310408E0110928D011092DA011092D9018AEA70
S113105080932401809395010E943803BB9ABA9A25
S113106056C0253059F40E941C026F7070706F5F77
S11310707F4F7093BB016093BA0149C082E00E9424
S1131080320545C080910601909107019C01369577
S1131090279536952795821B930B8C179D07D0F4C3
S11310A084E00E94F50180910601909107019C0162
S11310B0E3E036952795EA95E1F7820F931FC81769
S11310C0D90728F5D0939201C093910185E00E943D
S11310D0F5011DC08091D6018F5F8093D6018150A8
S11310E0863060F085E08093050181E080930E01F5
S11310F082E00E94F5010E947E0409C083E00E9400
S1131100320580E590E0019701960197E1F780911F
S1131110280180930501843059F084E080932801EC
S113112082E08093B5011092BC010E949C0241C0F0
S1131130809110018330E9F5809108018823C9F575
S113114080915901882309F066C05EC0EF2DE695B1
S1131150E695E695FF274F2D5527E75AFE4F9A014E
S11311602770307081E090E002C0880F991F2A95A3
S1131170E2F78095208128232083C0930F0111C0BA
S11311802196C130D10511F4C0E0D0E0FC2E8C2FA3
S11311900E9412038823D1F6C017D10789F74FEFB5
S11311A050E04093900181E08093100188E00E9418
S11311B0F5018E2D99278FBF34C08FB7F8949927E6
S11311C08FBF2FB7F894332786B1582F5770482F05
S11311D04072987D942B952B8074977B982B90610B
S11311E09F77892F992786B9887D842B852B8773D0
S11311F08061992786B9887D842B852B877B8069BC
S1131200992786B92FBF0DC081E080930801109201
S113121010013798CECF80910F01082F1127E801D4
S1131220AFCFFF91EF91DF91CF91BF91AF919F919C
S11312308F917F916F915F914F913F912F911F916A
S11312400F91FF90EF900F900FBE0F901F90189585
S1131250AF92BF92CF92DF92EF92FF920F931F93C0
S1131260CF93DF93CDB7DEB762970FB6F894DEBFA6
S11312700FBECDBF182F853009F4DAC0863090F444
S1131280823009F46CC0833030F4882331F181302A
S113129009F0AFC24CC0833009F467C0843009F050
S11312A0A8C279C0883009F4D6C1893038F48630B0
S11312B009F43AC1873009F09CC264C18A3009F448
S11312C0E5C18A3008F4DFC18B3009F092C213C241
S11312D02FBF8FC2C601B5010BC28091C7018823FD
S11312E009F487C240E051E09091C701852F89231A
S11312F0C1F0E42FFF27EE0FFF1FEA5DFE4F2081B0
S1131300318111821082852F809598239093C70193
S1131310442339F42952314009F068C2109225015E
S113132065C24F5F483008F064C2550FDDCF10919D
S11313300201E12FFF27EE0FFF1FEA5DFE4FE08061
S1131340F180118210820E945206112309F051C2C9
S113135059E2E51651E0F50609F04BC210C10FB78A
S1131360F89411270E948A05DDC08FB7F894992755
S113137020910E018FBF222309F43BC20E94730304
S1131380AB01BC01EE240AEF10E020E030E081E084
S11313900E949A032EC20FB7F8948091960181FDA2
S11313A006C08091550190915601892BA1F480913A
S11313B00E018450823090F580910501843019F03B
S11313C085E08093050181E080930E0182E00E9414
S11313D0F50121E024C090E080918F018F3108F065
S11313E091E09923D9F090E080919301833009F43E
S11313F091E0992399F40E94750481E0809393010C
S11314006F98B89AC09880910501843019F085E0EE
S11314108093050110930E010E948A0520E0802F1D
S113142099278FBF222309F4E4C10E946B05E1C10F
S11314308FB7F894992720919101309192018FBF31
S113144080915A01E82FFF27EE0FFF1FE156FE4F50
S1131450318320838F5F80935A01893010F010927A
S11314605A0180918F018F3118F48F5F80938F011F
S1131470DE011196EFE9F1E082E101900D928150D5
S1131480E1F760E08E010F5F1F4F41E050E0DE01A5
S11314901396E52FFF27EE0FFF1FE00FF11F2D918D
S11314A03C911197808191818217930708F4542FFE
S11314B04F5F1296493069F7E52FFF27633041F0FB
S11314C0EE0FFF1FE00FF11F118210826F5FDDCF5F
S11314D0609106017091070188279927B5E0660F8E
S11314E0771F881F991FBA95D1F7EE0FFF1FE00FE2
S11314F0F11F2081318144275527220F331F441FB8
S1131500551F620F731F841F951F0FB7F89411277F
S113151022E230E040E050E00E942C1230930701B8
S1131520209306010FBF65C12FB7F894332740916C
S11315305B0150915C018091DB018D7F8093DB0125
S113154082E08093930110928E0110928D012FBF3F
S113155080910201882309F04CC100912601109169
S113156027010417150709F044C1109227011092AE
S113157026010E9452060952114009F03AC1109204
S1131580250137C18FB7F894282F33278091930111
S1131590853009F09DCEE0910301F09104012FBF45
S11315A0A48184A123A19927982F88273327822BEC
S11315B0932B0197B9F5808141812FB7F894332794
S11315C06091090170910A012FBF9927982F8827EC
S11315D05527842B952B8617970759F080812181F5
S11315E09927982F88273327822B932B8F5F9F4F20
S11315F0C9F486818630B1F4A230A1F4DF011896D3
S1131600808580FF02C0DA9801C0DA9A8C9181FF4C
S113161002C0D99801C0D99A8C9182FF02C0D8988F
S113162001C0D89A1FB7F894309721F0F0930401C1
S1131630E093030180919301853039F482E0809333
S1131640930110928E0110928D010E942603812F26
S113165099278FBFCEC02FB7F8943327809190017C
S11316608093080183E0809310012FBF80910801CB
S1131670882309F0BEC082E08093B5011092BC01BA
S11316800E949C02B6C01092B501B3C080912301A0
S1131690882361F52091C2013091C3014091C401B6
S11316A05091C501EFB7F894FF2760919B017091A9
S11316B09C0180919D0190919E01E090BE01F0906B
S11316C0BF010091C0011091C1016E0D7F1D801FEB
S11316D0911FEFBF2093C2013093C3014093C40113
S11316E05093C501109223010E945B040E9473036E
S11316F00E9477067EC00E9473035B016C018FB762
S1131700F89499271092BD018FBF8091190181FF30
S113171025C08091110190911201A0911301B09103
S11317201401A6019501281B390B4A0B5B0BE090B1
S11317301501F09016010091170110911801E21A99
S1131740F30A040B150B3FEFE3163FEFF3063FEFED
S113175003073FE7130711F061E009C0BFEFEB2E69
S1131760BFEFFB2EBFEF0B2FBFE71B2F60E0809175
S1131770220181FF21C080911A0190911B01A09147
S11317801C01B0911D01A6019501281B390B4A0BC0
S11317905B0BDA01C90120911E0130911F014091B8
S11317A0200150912101281B390B4A0B5B0B2E158C
S11317B03F054007510724F06623D9F0A80197019B
S11317C012161306140615060CF084CD2093C201DC
S11317D03093C3014093C4015093C50181E08093C9
S11317E02301C601B5010E945B0403C0550F41E00B
S11317F07BCD62960FB6F894DEBF0FBECDBFDF91EE
S1131800CF911F910F91FF90EF90DF90CF90BF90F9
S1131810AF9008958091C8018F3FB1F0282F3327EE
S1131820F901E753FE4F80818093C8018F3F11F483
S11318308093D7018FEF80832F3F31F0822F0E9456
S1131840280981E090E0089580E090E00895CFEFCA
S1131850D0E1DEBFCDBFFFB6F8944CE050E06FEFAF
S113186070E089EC91E00E9406128FEF8093C8012A
S11318708093D70181E08EBD88E080BF83E083BF81
S11318808CB59DB54AE72CB53DB52817390708F442
S11318904150442311F0C901F6CF92B782B789179A
S11318A0E9F32CB53DB592B782B78917E9F38CB546
S11318B09DB5821B930B409675E0969587957A9516
S11318C0E1F790939A018093990113BE83B78EBD7B
S11318D08EB580BF12BE1DBC1CBC8FEF86BF86B701
S11318E080937C0080B7992787709070892BD1F7FB
S11318F0D29AD19AD09ADA9AD99AD89A15BA8FEFFD
S113190084BBD498DC9816B8D6988C9A8E9A8F9A01
S1131910949A979A969A6FE380E00E94BD0160E0E2
S11319208BE00E94BD01B998BF98BB98BA9880E239
S113193085BF0E940A0C8823E1F780B7886080BFC6
S11319408BE083BF86EE81BF87B7826087BF0E942A
S1131950D80380910001909101010196AA27BB2729
S11319608093890190938A01A0938B01B0938C0199
S1131970109259018091DB0181608093DB016B98A7
S11319806A986F9A6E9A6AE380E00E94BD016BE3E5
S113199080E00E94BD0180ED97E0019701960197D8
S11319A0E1F780E88093940160E88BE00E94BD0138
S11319B060E984E00E94BD0160E08FE00E94BD0107
S11319C06FE680E10E94BD0165E581E10E94BD01F1
S11319D061E083E10E94BD0101E010E0C0ECD2E0CF
S11319E0FE01C895602D802F0E94BD010F5F1F4F1F
S11319F021960D301105A1F7C1EDD2E0FE01C89585
S1131A00602D82E10E94BD012997FE01C895802DB9
S1131A10809398012A96FE01C895802D8093C60173
S1131A202897FE01C895802D8093940160E08BE097
S1131A300E94BD016FE382E40E94BD0161E180E088
S1131A400E94BD010E948D0461EE80E00E94BD01F0
S1131A506091C60189E00E94BD0160E08BE00E94B4
S1131A60BD010E948D040E94E1010E947504EFE90A
S1131A70F1E080E291E08193919321E0E13BF20770
S1131A80D1F70E940A0C8823E1F78F2D99278FBF85
S1131A9078940E9467078FB7F894482F552749C058
S1131AA087B7992783709070892B19F4E5E0F0E0EB
S1131AB013C080B7992787709070892BD1F781B7AD
S1131AC092B7891B8C3030F082B7853F18F4E3E07D
S1131AD0F0E002C0E2E0F0E087B7887BC1F48091D7
S1131AE07D008B7FA1F46E9912C08AB190919A0007
S1131AF0892B807C61F48091740082FD08C0379B3F
S1131B0003C081E090E005C085E090E002C080E081
S1131B1090E025B78E1708F4E82FFF27E457FD4F10
S1131B20C895E02D237E2062E22BE5BF789488954A
S1131B30F8948091C8018F3F09F4B2CF282F33273E
S1131B40F901E753FE4F80818093C8018F3F11F460
S1131B508093D7018FEF80832F3F09F4A1CF4FBF2C
S1131B60822F0E94280997CF1F920F920FB60F92CF
S1131B7011240F931F932F933F934F935F936F936E
S1131B807F938F939F93AF93BF93CF93DF93EF9301
S1131B90FF931FB1809195018FB96091DB0162FDC4
S1131BA0109580919301883009F444C0893098F4E9
S1131BB0843009F4C7C1853038F4823009F40AC18D
S1131BC0833009F08DC251C1863009F458C2873080
S1131BD009F086C215C08B3009F475C08C3030F41E
S1131BE08930A9F18A3009F07BC25FC08D3009F4D5
S1131BF0A9C08D3008F486C08E3009F071C2D4C0FB
S1131C00809124018093950180918D0190918E01A2
S1131C10019690938E0180938D012091B1013091B2
S1131C20B2018217930708F45BC283E38093240113
S1131C3088E054C280912401809395018CEC8093B8
S1131C40240189E0809393018FEF9FEFC6C1A09197
S1131C505B01B0915C018091240180939501E09136
S1131C608D01F0918E013196F0938E01E0938D01F8
S1131C70ED018C8199270796E817F90780F4EA0F9C
S1131C80FB1F6081609324018091D9019091DA0156
S1131C900E94AF019093DA018093D90121C280910F
S1131CA0D901809324018AE019C280912401809390
S1131CB095018091D9019091DA01892F9927809318
S1131CC024018BE013C080912401809395018091BD
S1131CD08D0190918E01019690938E0180938D01D8
S1131CE0049708F4FDC160FF08C08CE08093930161
S1131CF010928E0110928D01F3C1BB98BA980E9484
S1131D00E101EBC1809124018093950180918D01C3
S1131D1090918E01019690938E0180938D01813074
S1131D20910529F4BB98BA980E94E101D9C104979E
S1131D3008F4D6C18DE0809393011092B4011092FF
S1131D40B301D6CF809124018093950180918D01B8
S1131D5090918E01019690938E0180938D018091D4
S1131D60B3019091B40120E0880F991F17FD8160A1
S1131D703AEB8338930709F4A5C12F5F283011F09B
S1131D80110FF2CF9093B4018093B30180918D0130
S1131D9090918E01429708F4A3C1E0915B01F09108
S1131DA05C0187A18E7F98C186E00E94F501809135
S1131DB096018D7F8093960180910501843019F0FE
S1131DC085E08093050181E080930E0182E00E940A
S1131DD0F50186C11A3A19F0153509F06DC18091E3
S1131DE08D0190918E01019690938E0180938D01C7
S1131DF0039758F083E08093930110928E01109220
S1131E008D011092B4011092B30191E0809196017A
S1131E1081FF66C180FD0DC0992359F00E941C0208
S1131E206F7070706F5F7F4F7093BB016093BA01E6
S1131E3057C18091BA019091BB01009709F450C138
S1131E4001979093BB018093BA01892B09F048C193
S1131E5080910501843019F085E08093050110928A
S1131E60D60182E00E9432053BC11A3A11F01535C1
S1131E7029F4812F9927982F882714C080918D01E8
S1131E8090918E01019690938E0180938D01813003
S1131E90910569F4212F33278091B3019091B40106
S1131EA0822B932B9093B4018093B30119C10797AC
S1131EB008F046C0C091B301D091B4019C2F88278B
S1131EC0212F3327822B932B9093B4018093B3015A
S1131ED007E0CC0FDD1F17FDC16083E3CC3CD807BE
S1131EE049F5E0910301F091040184E080939301AA
S1131EF08CE1848310928E0110928D011092DA018C
S1131F001092D90180910501843019F085E0809305
S1131F10050182E080930E01902F9770990F990F1D
S1131F20990F8091DB01877C892B8093DB0180E012
S1131F300E94320501500F3F09F4D2C0110FC9CFDE
S1131F4082E0D4CEE0910301F091040144814D314B
S1131F5050F082E08093930110928E0110928D01D3
S1131F600E942603BDC08091B3019091B401982FC3
S1131F708827212F3327822B932B9093B4018093AE
S1131F80B301669566956695677002C096958795C8
S1131F906A95E2F7BC0180918D0190918E01E80F62
S1131FA0F91F6083EC012196D0938E01C0938D01BB
S1131FB0495F042F11270C171D0750F08091D90198
S1131FC09091DA010E94AF019093DA018093D901D4
S1131FD0C017D10739F483E290E090938E01809387
S1131FE08D017EC0A59709F07BC0E0910301F091BB
S1131FF0040184A123A140E050E09927982F882769
S11320003327822B932B2091D9013091DA01821747
S1132010930711F441E050E0242F43A3852F99271F
S1132020482F84A38091DB0180FF39C0842F992736
S1132030982F88273327822B932B892B81F180813A
S113204041812FB7F89433276091090170910A01F7
S11320502FBF9927982F88275527842B952B8617D0
S11320609707E9F486E08093930110928E01109211
S11320708D010E943803BB9ABA9A8AEA1AC0E09189
S11320808D01F0918E013196F0938E01E0938D01D4
S1132090E031F10538F00E94E101BB98BA980E9442
S11320A053031EC0EB30F105D8F0E957FD4FC89536
S11320B0802D8093950114C010928E0110928D0191
S11320C090E0A4CE9093B4018093B301E0915B01BE
S11320D0F0915C0187A1816087A38EE080939301D6
S11320E0FF91EF91DF91CF91BF91AF919F918F912C
S11320F07F916F915F914F913F912F911F910F911C
S11321000F900FBE0F901F901895ACE2B0E0EBE873
S1132110F0E10C944E12222E332E442E552E662EB0
S1132120772E882E992EFE013196A8E01192AA9559
S1132130E9F729823A824B825C826D827E828F82A9
S11321409886FE013996B8E01192BA95E9F7A98606
S1132150BA86CB86DC86ED86FE860F87188B89814E
S11321609A81AB81BC8189A79AA7ABA7BCA77C0144
S11321708D018FEF9FEFA0E0B0E0E822F9220A235F
S11321801B2389A59AA5ABA5BCA51D0144245524F0
S113219089859A85AB85BC858DA39EA3AFA3B8A77B
S11321A05C016D018FEF9FEFA0E0B0E0A822B9229F
S11321B0CA22DB228DA19EA1AFA1B8A53D0188242E
S11321C09924C801B701A60195010E940D1269A3C3
S11321D07AA38BA39CA3C801B701A40193010E9415
S11321E00D127B018C01C201B101A60195010E946F
S11321F00D125B016C01C201B101A40193010E94A3
S11322000D123B014C01EA0CFB1C0C1D1D1D89A188
S11322109AA1ABA1BCA19D01442755272E0D3F1DBA
S1132220401F511F2A153B054C055D0540F480E015
S113223090E0A1E0B0E0680E791E8A1E9B1ECA01E0
S1132240AA27BB27860D971DA81DB91D8D8F9E8FAC
S1132250AF8FB8A3A9013327222789A19AA1ABA1E3
S1132260BCA1A070B070280F391F4A1F5B1F298FB3
S11322703A8F4B8F5C8FA98CBA8CCB8CDC8CED8C19
S1132280FE8C0F8D18A1FE01719698E011929A951B
S1132290E9F7ED8AFE8A0F8B188F2D813E814F81DD
S11322A058856DA17EA18FA198A50E940D123B01B6
S11322B04C012D853E854F85588969A57AA58BA546
S11322C09CA50E940D122D893E894F89588D260F99
S11322D0371F481F591F260D371D481D591D2D8BAB
S11322E03E8B4F8B588F6D887E888F88988C2A2DD3
S11322F03B2D4C2D5D2D662D772D882D992DE2E1FA
S1132300AC960C946A12A0E1B0E0E9E8F1E10C9417
S11323104E12222E332E442E552E662E772E882EC4
S1132320992E002309F466C088E0FE0131961192CB
S11323308A95E9F729833A834B835C836D837E8393
S11323408F829887E0E2E01B1E16CCF52D813E813A
S11323504F815885602F772767FD7095DA01C90191
S1132360062E04C0B695A795979587950A94D2F73B
S11323708D879E87AF87B88B04C0220F331F441FFD
S1132380551FEA95D2F789819A81AB81BC8104C03B
S1132390B695A795979587956A95D2F7282B392BEB
S11323A04A2B5B2B29873A874B875C8729843A849D
S11323B04B845C846D847E848F8498881BC01D86C6
S11323C01E861F86188A2E2F332727FD30953095B9
S11323D021953F4F8D819E81AF81B88504C0B6950C
S11323E0A795979587952A95D2F789879A87AB877A
S11323F0BC87DCCF222D332D442D552D662D772D12
S1132400882D992DE2E160960C946A12DC0101C0DA
S11324106D9341505040E0F70895629FD001739F3F
S1132420F001829FE00DF11D649FE00DF11D929F6C
S1132430F00D839FF00D749FF00D659FF00D9927AB
S1132440729FB00DE11DF91F639FB00DE11DF91FCF
S1132450BD01CF0111240895A1E21A2EAA1BBB1BB2
S1132460FD010DC0AA1FBB1FEE1FFF1FA217B3075C
S1132470E407F50720F0A21BB30BE40BF50B661F72
S1132480771F881F991F1A9469F760957095809536
S113249090959B01AC01BD01CF0108952F923F920D
S11324A04F925F926F927F928F929F92AF92BF9260
S11324B0CF92DF92EF92FF920F931F93CF93DF930C
S11324C0CDB7DEB7CA1BDB0B0FB6F894DEBF0FBE69
S11324D0CDBF09942A88398848885F846E847D84B6
S11324E08C849B84AA84B984C884DF80EE80FD80B8
S11324F00C811B81AA81B981CE0FD11D0FB6F8942E
S10F2500DEBF0FBECDBFED010895FFCF7C
S10F250C0100015D010420010101000038
S9030000FC
