:100000000C9469000C9488000C9488000C9488006F
:100010000C9488000C9488000C9488000C94880040
:100020000C9488000C9488000C9488000C94880030
:100030000C9488000C9469040C9488000C9491032F
:100040000C94250D0C945D0D0C944D030C945803E9
:100050000C9463030C9488000C9488000C94880022
:100060000C94B2030C9488000C9488000C948800C3
:100070000C9488000C9488000C9488000C948800E0
:100080000C9488000C9488000C9488000C948800D0
:100090000C9488000C9488000C9488000C948800C0
:1000A0000C9488000C9488000C9488000C948800B0
:1000B0000C9488000C9488000C9488000C948800A0
:1000C0000C9488000C9488000C94880000020E06A2
:1000D0000C0411241FBECFEFD1E2DEBFCDBF12E072
:1000E000A0E0B2E0EEE8F9E200E00BBF02C007904A
:1000F0000D92AA30B107D9F713E0AAE0B2E001C02F
:100100001D92AB3BB107E1F70E944E110C94C6144F
:100110000C9400008FB7F894992708958FBF089525
:10012000282F9FB7F894E82FFF27E555FC4F8081D3
:100130008F3F81F4E091B603E21771F40BC0209376
:10014000A50304C0FF27E555FC4F20832093B60389
:1001500020E007C025E005C08091A5038F3F91F7FF
:10016000EECF892F99278FBF822F99270895882353
:1001700019F08CB5806402C08CB58F7B8CBD08955E
:100180000F931F93982F1FB7F89480910C02823021
:1001900079F580910802891759F58091060290E05F
:1001A0008F3F09F491E09923E1F48F3F19F42FEF89
:1001B00030E00EC0282F3327F901E854FC4F80812E
:1001C000809306028F3F11F4809307028FEF8083A4
:1001D00020938B0381E080930C028AE00E949000C0
:1001E00005C08FEF8093080210920C0201E001C05D
:1001F00000E0812F99278FBF1FB7F89480910C02E0
:10020000882311F40E94B700812F99278FBF90E0B7
:10021000013009F491E081E09827892F99271F91F7
:100220000F910895882319F08CB5806802C08CB5B1
:100230008F778CBD08950F931F9380E00E94B700C5
:100240000FB7F8941127229A2398219A8CB58061D0
:100250008CBD80E00E9412018DB581608DBD8CB592
:10026000877F8CBD8CB58B7F8CBD8CB58E7F8CBD14
:1002700081E00E94B7000FBF1F910F9108958FB7C3
:10028000F8942091EE023091EF024091F0025091EB
:10029000F102E0918400F0918500B09B08C02F5FCF
:1002A0003F4F4F4F5F4FE0918400F09185009927B9
:1002B0008FBFC901772766279F0144275527622BE7
:1002C000732B842B952B0895AC01EFB7F8942091F4
:1002D000840030918500C901841B950B0396861715
:1002E000970720F0B9016D5F7F4F02C0640F751F43
:1002F0006115710511F461E070E061507040709318
:1003000089006093880082E086BB80916F008260E4
:1003100080936F008E2F99278FBF0895DC01FC0119
:100320008191FD019181282F332795FF03C0C901D9
:100330008B960895C90140960895FC0180A5662317
:1003400011F0816001C08E7F80A70895FC01828139
:1003500021819927982F88273327822B932B85FF7C
:100360001FC087749C7C81549848D1F48781468152
:100370002FB7F894332760910302709104022FBFC6
:1003800020E09927982F88275527842B952B8617AF
:10039000970709F021E081E02827822F9927089507
:1003A00080E090E00895FF920F931F93CF93DF9327
:1003B000AC0180917F03282F3327F901EE0FFF1F37
:1003C000EF57FC4F808191816091F202841795076D
:1003D00069F4F901EF51FD4F8081861709F464C07B
:1003E000862F8F5F8093F20280831BC000E010E0B5
:1003F00080E090E0C1E8D3E0E1EEF2E0F62EF39485
:10040000DF01782F9C01888199818417950759F421
:1004100020937F038C91861709F446C0F092F20274
:10042000FC9200E828C08081962F981B091710F4D1
:10043000092F122F7F5FC9010196119622963196DE
:1004400085309105F1F67530B1F410937F03A12F3B
:10045000BB27FD01EE0FFF1FEF57FC4F5183408379
:10046000862F8F5F8093F202FD01EF51FD4F808355
:10047000A559BC4F1C929091F202892F8F778F372C
:1004800079F40F3768F0E1EEF2E0292F20788081CF
:100490008F6789132083319682E0E63EF807B9F72B
:1004A00080917F03282F3327C901DF91CF911F91BE
:1004B0000F91FF900895EF92FF920F931F937C018D
:1004C0008FB7F894992700919B0310919C030F5EBE
:1004D0001E4F10939C0300939B03015111408FBF4B
:1004E00088E00E949000C801B7010E945C148A5DF8
:1004F0009E4F1F910F91FF90EF9008957FB7F89452
:100500006091B2002091EA023091EB024091EC023E
:100510005091ED02B99B11C08091B3009091B2004F
:10052000280F311D411D511D2F5F3F4F4F4F5F4F12
:10053000290F311D411D511D04C0260F311D411DC4
:10054000511D872F99278FBFCA01B9010895DF92E6
:10055000EF92FF920F931F938FB7F894282F3327B2
:10056000D22E9091B3008091B20047B3981711F04A
:1005700041FF02C02FBF71C0809177038823E1F152
:100580000E947E02E0909503F090960300919703FD
:10059000109198032091FA023091FB024091FC02E5
:1005A0005091FD026E197F09800B910B6217730742
:1005B0008407950720F01092770371E01EC02E0D7E
:1005C0003F1D401F511F8091EA029091EB02A091C4
:1005D000EC02B091ED02281B390B4A0B5B0B273E56
:1005E00031054105510540F4822F223010F070E0B2
:1005F00005C070E082E002C070E086EE682F6150B6
:100600008091B60083FDFCCF8091B200681709F499
:100610006F5F2091EA023091EB024091EC02509121
:10062000ED02DA01C9010196A11DB11D860F911DD0
:10063000A11DB11D82179307A407B50710F4622FFF
:1006400060958091B60083FDFCCF6093B300DFBE60
:10065000772319F082E00E9490001F910F91FF9084
:10066000EF90DF900895AFB7F894BB27E1E0E093F7
:100670007703609395037093960380939703909309
:1006800098032093FA023093FB024093FC025093AC
:10069000FD02AFBF0E94A702089578941F920F92A7
:1006A0000FB60F9211240F900FBE0F901F90189548
:1006B00078941F920F920FB60F9211240F900FBED5
:1006C0000F901F90189578941F920F920FB60F926B
:1006D00011242F933F938F939F93AF93BF932FB783
:1006E000F89433278091EE029091EF02A091F002EE
:1006F000B091F1020196A11DB11D8093EE0290937D
:10070000EF02A093F002B093F1022FBFBF91AF911F
:100710009F918F913F912F910F900FBE0F901F903F
:1007200018951F920F920FB60F9211248F938091FC
:10073000B0008093B0008091B60081FDFCCF8F9116
:100740000F900FBE0F901F9018951F93182F81E0E8
:100750000E94B7001EBD0DB407FEFDCF8EB59927D0
:100760001F9108951F920F920FB60F9211248F922E
:100770009F92AF92BF92CF92DF92EF92FF920F9330
:100780001F932F933F934F935F936F937F938F9319
:100790009F93AF93BF93CF93DF93EF93FF932EB5C8
:1007A000E091B002F091B102309739F08091F802F7
:1007B0009091F902E80FF91F20838091F80290913F
:1007C000F90201969093F9028093F80280E00E946A
:1007D0001201C091F802D091F90280918F0390919B
:1007E0009003C817D90708F046C00091690310911B
:1007F0006A038090B0029090B1020F2EFAE0AF2E03
:10080000BB24F02DAC0EBD1E8A159B0508F45C01BF
:100810006401CC0EDD1E7801EC0EFD1E15C0011525
:10082000110519F0F701808101C080E00E94A50345
:100830008114910411F0F601808321960894C11C63
:10084000D11C0894E11CF11CC5010197C817D907F8
:1008500030F381E00E9412010115110531F00C0FF7
:100860001D1FF80180818EBD01C01EBCD093F9020E
:10087000C093F80211C01092B1021092B00210920F
:100880006A03109269031092900310928F031092E2
:10089000F9021092F8028EB5FF91EF91DF91CF919E
:1008A000BF91AF919F918F917F916F915F914F9188
:1008B0003F912F911F910F91FF90EF90DF90CF907C
:1008C000BF90AF909F908F900F900FBE0F901F9092
:1008D00018951F920F920FB60F9211242F933F93EA
:1008E0004F935F936F937F938F939F93AF93BF9338
:1008F000EF93FF938091B0008093B0008091B60099
:1009000081FDFCCF8091B30099270196AA27BB27D0
:100910002091EA023091EB024091EC025091ED02FD
:10092000280F391F4A1F5B1F2093EA023093EB0206
:100930004093EC025093ED0278940E94A702FF913D
:10094000EF91BF91AF919F918F917F916F915F9147
:100950004F913F912F910F900FBE0F901F901895C0
:1009600021E0209391032093F302209184003091A1
:100970008500BC01C9010E9464010895EF920F93A4
:100980001F93AE2D99E0899FF0011124E656FD4F8B
:100990004083518362837383048315832683378363
:1009A000A17080858E7F8A2B8260808783E00E9481
:1009B00090001F910F91EF9008950F931F93CF9385
:1009C000DF93182F0FB7F89480910C02882311F44D
:1009D0000E941B01802F99278FBF8FB7F894C82FD3
:1009E000DD272C2F80910C02882361F481E0809315
:1009F0000C0210938B038AE00E949000CFBF80E02E
:100A000090E021C0E12FFF27E854FC4F80818F3F09
:100A100089F4E0910702E11789F40CC010930602F3
:100A200004C0FF27E854FC4F10831093070280E0B6
:100A300090E002C085E090E02FBF05C080910602E3
:100A40008F3F79F7EBCFDF91CF911F910F910895F1
:100A50008FB7F894282F3327922F8091080288238C
:100A600031F480910C02823011F42FBF13C09FBF6C
:100A70008FB7F894282F332780910C02882369F4CC
:100A800082E080930C02109208022FBF0E941B018B
:100A9000209A289A81E090E008952FBF80E00E947C
:100AA000DD0480E090E008954F925F926F927F9214
:100AB0008F929F92AF92BF92CF92DF92EF92FF926E
:100AC0000F931F93CF93DF93EC01809170038823E2
:100AD00009F052C180917E03853009F04DC10E941A
:100AE0002805882309F448C18091F602882309F07B
:100AF00043C178E2472E512C4C0E5D1E88A582FD25
:100B000002C090E003C0F20192819F7080910003C7
:100B1000981781F090930003289885EC8EBD0DB452
:100B200007FEFDCF8EB590689EBD0DB407FEFDCFCC
:100B30008EB5289A6CE0862E912C8C0E9D1E8A8193
:100B4000298140E09927982F88273327822B932BE0
:100B500087749C7C8154984809F441E0442301F156
:100B6000289886E88EBD0DB407FEFDCF8EB51EBC5D
:100B70000DB407FEFDCF8EB5289A99278F7190701E
:100B80002091FF024091B903240F312D311D43E024
:100B9000359527954A95E1F7281739070CF4ECC0ED
:100BA000289882EC8EBD0DB407FEFDCF8EB589E08E
:100BB0008EBD0DB407FEFDCF8EB5289A0E943F0171
:100BC0007B018C01F201808184FD03C060E070E054
:100BD00005C088818151B401680F711D289881E892
:100BE0008EBD0DB407FEFDCF8EB51EBC0DB407FE45
:100BF000FDCF8EB5289A8F71893021F087E08093E0
:100C00007E03BAC08FB7F89499272F9A4091840039
:100C1000509185004E555F4F8FBF2F98289880E6E2
:100C20008EBD98810DB407FEFDCF8EB59EBDF92F08
:100C3000F250F73010F4EF2F01C0E7E02196DE010B
:100C40002E2F9D910DB407FEFDCF8EB59EBD215078
:100C5000C1F7E1506E01CE0ED11CEF5F0894C11CAC
:100C6000D11C4E195F093A01882477FC8094982C96
:100C70006E0C7F1C801E911E61157105C1F0EB0189
:100C800088819981AA81BB8186199709A809B90928
:100C90008B83292F3A2F4B2F55272A839D014427D9
:100CA000552729838B2F9927AA27BB2788839F2F16
:100CB0009E1BF60121916F010DB407FEFDCF8EB58D
:100CC0002EBD9150B1F70DB407FEFDCF8EB5289A19
:100CD000289882EC8EBD0DB407FEFDCF8EB586E060
:100CE0008EBD0DB407FEFDCF8EB5289A6115710536
:100CF00089F1EB018881E9802A81AB803327442781
:100D00005527542F432F322F22279927AA27BB2755
:100D1000B82FAA2799278827FF24002711278701A2
:100D2000FF24EE248E299F29A02BB12BBB24CC2499
:100D3000DD248A299B29AC29BD29282B392B4A2B54
:100D40005B2B260D371D481D591DFB012083318368
:100D500042835383E201888182608883F201638247
:100D600074828582968286E080937E0384E08093FD
:100D7000700380E090E002C085E090E0DF91CF91C9
:100D80001F910F91FF90EF90DF90CF90BF90AF90A9
:100D90009F908F907F906F905F904F9008951F93DA
:100DA000CF93DF93182FFA01422FDF011196ED0147
:100DB0008981218150E09927982F88273327822B1A
:100DC000932B87749C7C8154984809F451E05523F7
:100DD00031F481E4818388E8ED01898310A62FB77F
:100DE000F894332780910302909104022FBF8087EB
:100DF000892F992781872FB7F8943327809105028F
:100E00002FBF99278483158213876683872F99279D
:100E100087838FE382878091A3038F5F8093A303EF
:100E200083834D3118F086E090E017C080917D03F8
:100E3000882319F085E090E010C0435F4083F09371
:100E40007503E093740381E080937D031092BA03ED
:100E500085E00E94900080E090E0DF91CF911F91AB
:100E6000089510920202E091AE02F091AF02309725
:100E700021F08091A40380FF08C081E080930202EA
:100E8000089581E00E949000089520812D5033271D
:100E900067817727762F662786819927682B792B9C
:100EA000AF0183850E94CF06882359F708951F93C9
:100EB000182F882381F48091E6029091E7020E9426
:100EC0008E012091710330917203280F391F3093E6
:100ED0007203209371038FB7F894992710939403AA
:100EE0008FBF85E00E9490001F910895FF920F939D
:100EF0001F93CF93DF938091F602882309F40CC1EE
:100F00000E942805882309F407C18FB7F894992710
:100F1000C091F402D091F5028FBF1092F60228988A
:100F20008FE88EBD0DB407FEFDCF8EB51EBC0DB48F
:100F300007FEFDCF8EB5289A982F082F112700FFA6
:100F40000CC080917003833011F0873031F485E05C
:100F500080937E0388E08093700302FF58C08091E5
:100F60007003863019F41092700303C0882309F0CF
:100F70004EC09430D9F5289886E88EBD0DB407FE92
:100F8000FDCF8EB51EBC0DB407FEFDCF2EB5289A41
:100F90002F718091B903982F96959695322F391B12
:100FA000830F8093B903E091E802F091E90280A5F4
:100FB0008B7F886080A722A70E943F01E091E80212
:100FC000F091E90220A5226020A7C61BD70B279726
:100FD0009E01442737FD4095542F260F371F481F89
:100FE000591F23A734A745A756A70EC0E091E802D2
:100FF000F091E90280A5877F80A7E091E802F09157
:10100000E90280A58D7F80A785E08093700303FFB0
:1010100083C080917003843009F04BC085E08093D9
:101020007E03109270038091FE02833019F41092B7
:10103000FE0272C0E0919203F091930382812181BC
:101040009927982F88273327822B932B85FF29C038
:1010500087749C7C8154984821F587812681992743
:10106000982F88273327822B932B8F5F9F4FC9F0B0
:1010700090E08091F302882309F491E0992389F0AC
:1010800012E01093910381E08093F3028091840039
:101090009091850061EE72E00E9464011093FE025F
:1010A0003BC01092FE021092730380E00E9457072B
:1010B00033C0853089F580917E03873091F428987C
:1010C00082EC8EBD0DB407FEFDCF8EB586E08EBDE1
:1010D0000DB407FEFDCF8EB5289A85E080937E0380
:1010E00017C02091FF02289886E88EBD0DB407FE38
:1010F000FDCF8EB51EBC0DB407FEFDCF8EB5289A70
:101100008F71922F96959695891B280F2093FF0239
:1011100089E08093700308C090917003992309F4CB
:101120007BC2993009F0B6C1289880E28EBD0DB41B
:1011300007FEFDCF8EB51EBC0DB407FEFDCF8EB5EC
:10114000282F3327922F233008F43CC32A3208F08B
:1011500039C31EBCE091E802F091E902208320919E
:10116000E8023091E902592F5250573010F4452FC0
:1011700001C047E02F5F3F4F942FF90160E070E01E
:101180000DB407FEFDCF8EB51EBC8083819168270C
:10119000062E6295607F6025072E762F62956F7010
:1011A0000626669576276727660F660F660F602509
:1011B000915031F74150D901A40FB11D4F5F1196E5
:1011C000E091E802F091E9028181282F332727700E
:1011D00030702230310509F491E09923B9F0809103
:1011E000FE02823081F48381E0919203F0919303B7
:1011F0009381891741F490E02230310509F091E0A4
:1012000081E098270EC080E090E00DC08FB7F89481
:10121000282F332790E080918E03833008F491E0EB
:101220002FBF892F9927892B09F4CCC2952F941BA6
:1012300018C00DB407FEFDCF8EB51EBC8C938D91EA
:101240006827062E6295607F6025072E762F6295AF
:101250006F700626669576276727660F660F660FFE
:101260006025915030F70DB407FEFDCF8EB51EBC42
:101270009B012827022E2295207F2025032E322F26
:1012800022952F700226269532272327220F220F20
:10129000220F20250DB407FEFDCF8EB51EBC2827DA
:1012A000022E2295207F2025032E322F22952F708B
:1012B0000226269532272327220F220F220F2025D0
:1012C0000DB407FEFDCF8EB5E091E802F091E90282
:1012D00081A7289AE5E0FE2EF0927E03109270031B
:1012E000232B09F095C1C091E802D091E9028981D0
:1012F00060E08770823009F461E0062F1127809149
:10130000FE028230A9F480916F008D7F80936F0080
:101310001092F302602F80919203909193030E94A8
:101320009D011092FE021092730380E00E94570705
:10133000002309F0AAC0CE010E94A601882399F0DB
:10134000F092340382E080933503109236038B8150
:101350008093370384E393E00E945405882319F4B3
:1013600083E08093FE020091840010918500CE01FD
:101370000E94A601882311F0045E1C4F10938D0378
:1013800000938C038091840090918500081B190BB9
:10139000C801101611066CF420917303222331F456
:1013A0000E94B00480E88093730303C020682093F8
:1013B0007303CE010E948E0120917B0330917C0348
:1013C000280F391F30937C0320937B038985288560
:1013D0009927982F88273327822B932B0E94D3019C
:1013E000E82FFF27E559FC4F908191FD09C08091BE
:1013F0007A03803128F48F5F80937A039260908320
:10140000898528859927982F88273327822B932B26
:101410000E94D3019B81A82FBB27FD01E559FC4FFA
:10142000808180FF0EC0FD01EA55FC4F8081981736
:1014300051F480919A038F3F41F18F5F80939A031B
:1014400024C081608083AA55BC4F9C93FFB6F8945A
:1014500080918E038330B0F4E0918003E80FE33095
:1014600008F0E350FF27EE0FFF1FED59FC4F0081FE
:101470001181D183C0838F5F80938E0386E00E94A9
:101480009000E8018F2D99278FBFD093E902C09378
:10149000E802B2C0892F8150833008F08BC08150A0
:1014A0008230E0F430917E033130C1F420E080914D
:1014B000F302882309F421E0222381F02F9883E0AE
:1014C000809391033093F302809184009091850082
:1014D0006BE273E00E94640182E057C0933091F5A3
:1014E00080917E03833009F087C00E9428058823FD
:1014F00049F128988FE88EBD0DB407FEFDCF8EB55B
:101500001EBC0DB407FEFDCF8EB5289A80918100D8
:1015100080648093810080E286BB80916F0080624E
:1015200080936F00289882EC8EBD0DB407FEFDCF2E
:101530008EB586E08EBD0DB407FEFDCF8EB5289A20
:1015400084E023C0809170038150823000F5809147
:101550007E038530E1F40E9428058823C1F0289895
:1015600082EC8EBD0DB407FEFDCF8EB583E08EBD3F
:101570000DB407FEFDCF8EB5289A80916F008F7D48
:1015800080936F001092F60283E080937E03909127
:101590007003913041F480917E038330C9F52F9A16
:1015A00090937E0325C0923039F580917E0383307D
:1015B00079F51EC0973001F50E9428058823E1F0D7
:1015C0009091B703289888EC8EBD0DB407FEFDCF2F
:1015D0008EB590669EBD0DB407FEFDCF8EB5289AE0
:1015E00080917E03853021F484E080937E0304C0E3
:1015F00088E08093700304C080917003883041F4C8
:101600001092700387E00E94900084E00E94900096
:1016100080917003882331F580917E038530F9F441
:101620008091F6028823D9F48091FE028823B9F4D0
:1016300080917303882399F490E08091F3028823CA
:1016400009F491E0992359F080917D03813039F4B8
:1016500085E00E94900080917003882319F480E057
:101660000E94C0008091F302823009F09EC0109267
:10167000F302F0909103F81609F46CC023E0F2161F
:1016800009F477C031E0F31609F08FC020918C0384
:1016900030918D0380918400909185004091730377
:1016A000403859F41092730380917D03813009F022
:1016B0007CC085E00E94900078C0E901C81BD90B6E
:1016C00047FF03C01C161D06F4F00091A103109102
:1016D000A2038091FE028823B1F4C8010E94540540
:1016E0009927882359F460E0C8010E949D01F09277
:1016F000FE02109393030093920328C09927182F9A
:10170000882321F101C015E020917303822F9927CE
:101710008F77019759F4207822602093730380E13A
:1017200098E00E945B020E94B0043FC027FF0AC0FD
:101730001C161D063CF480E880937303CE010E94C2
:10174000B00402C010927303812F10C083E0809315
:1017500073032BC080919A038F3F19F08F5F8093A2
:101760009A031092FE021092730380E00E945707C2
:101770001CC080917E03823019F4F0927E0313C066
:1017800080917003863079F410927003289881E874
:101790008EBD0DB407FEFDCF8EB51EBC0DB407FE89
:1017A000FDCF8EB5289A0E94110D8FB7F894282F7F
:1017B000332780917603813061F081E08093760356
:1017C0002FBF99CB289A85E080937E0310927003F7
:1017D0001FCF109276032FBFDF91CF911F910F91F2
:1017E000FF9008958FB7F894282F332780917603C0
:1017F000815080937603803811F02FBF089581E0E7
:10180000809376032FBF0E9476070895AF92BF9210
:10181000CF92DF92EF92FF920F931F935B016C01C7
:101820006091A20261FF1FC020919A0230919B0239
:1018300040919C0250919D02E0909E02F0909F0288
:101840000091A0021091A102D601C501821B930B49
:10185000A40BB50B8E159F05A007B10720F0EAE990
:10186000F2E0DD2422C0E3EAF2E06091AB0261FF26
:10187000CCC02091A3023091A4024091A5025091C6
:10188000A602E090A702F090A8020091A902109190
:10189000AA02A21AB30AC40AD50AAE14BF04C0062B
:1018A000D10608F4B2C081E0D82E60FF04C0808564
:1018B0008D7F808708C02E0D3F1D401F511F208344
:1018C000318342835383DD2029F081E0D81609F06B
:1018D0009CC056C02FB7F8943327809176038F5F52
:1018E000809376032FBF80917103909172039C01C6
:1018F00003E0369527950A95E1F7821B930B9093A9
:1019000072038093710380917B0390917C039C010F
:1019100013E0369527951A95E1F7821B930B909368
:101920007C0380937B0380919A03982F96959695DC
:101930009695891B80939A032091F702422F469532
:101940004695469530917A03431741F4822F9927A3
:1019500087709070892B11F0215002C0341B230F27
:101960002093F702EBE6F3E080818D7F819383E0A3
:10197000E037F807C9F710927A030E94F20B45C0CE
:1019800020910A0230910B022F5F3F4F30930B02E0
:1019900020930A028091AD028823B9F52093BF02FB
:1019A000832F99278093BE0242EB52E08FEF809302
:1019B000B8028093B90286E08093BD028091AE02A6
:1019C0009091AF02892B09F55093AF024093AE027C
:1019D0008FE08093B20280910202882399F01092E6
:1019E000020222E06FEF7FEF86E00E94CF06992788
:1019F000882341F0D09202021092AF021092AE0200
:101A0000882319F481E08093AD0283E00E94900066
:101A10001F910F91FF90EF90DF90CF90BF90AF900C
:101A200008958FB7F894282F332780917603882361
:101A300029F08068809376032FBF089581E080931A
:101A400076032FBF0E947607089578941F920F9215
:101A50000FB60F9211242F933F934F935F936F9381
:101A60007F938F939F93AF93BF93EF93FF93809157
:101A700084009091850020918600309187008FB777
:101A8000F89499273093F5022093F40221E02093F3
:101A9000F6028FBF0E94110DFF91EF91BF91AF91A0
:101AA0009F918F917F916F915F914F913F912F9176
:101AB0000F900FBE0F901F90189578941F920F9261
:101AC0000FB60F9211242F933F934F935F936F9311
:101AD0007F938F939F93AF93BF93EF93FF938091E7
:101AE0006F008D7F80936F0078949FB7F8948091FA
:101AF000F302813019F482E08093F302892F992751
:101B00008FBF0E94110DFF91EF91BF91AF919F91F7
:101B10008F917F916F915F914F913F912F910F9096
:101B20000FBE0F901F9018951F938FB7F8949927A9
:101B3000209176032F5F209376038FBF80917D03E2
:101B4000882311F015E026C081E0809399038091ED
:101B500070038823E1F480917E03813049F490E0A2
:101B60008091F302882309F491E0992381F005C064
:101B7000853019F489E090E00CC083E08093700315
:101B80000E94110D84E080937D0310E003C085E086
:101B900090E0182F0E94F20B812F99271F91089532
:101BA0002F923F924F925F926F927F928F929F926D
:101BB000AF92BF92CF92DF92EF92FF920F931F935B
:101BC000CF93DF93CDB7DEB729970FB6F894DEBF7A
:101BD0000FBECDBF853009F440C1863090F482300D
:101BE00009F474C0833030F4882371F1813009F036
:101BF0001FC354C0833009F49EC0843009F018C359
:101C000014C1883009F411C2893038F4863009F4DF
:101C100097C1873009F00CC3FAC1893009F461C259
:101C20008A3009F005C372C2C601B50181C02FBF59
:101C3000FFC20E947E02AB01BC01EE2404E610E06C
:101C400020E030E080E006C18091A403882309F4FD
:101C5000EFC240E051E09091A403852F8923C1F0A9
:101C6000E42FFF27EE0FFF1FE255FD4F208131814A
:101C700011821082852F809598239093A40344238A
:101C800039F4225B324009F0D0C21092AD02CDC2CD
:101C90004F5F483008F0CCC2550FDDCF10910202E3
:101CA000E12FFF27EE0FFF1FE255FD4FE080F1808F
:101CB000118210820E943107112309F0B9C212EB80
:101CC000E11612E0F10609F0B3C237C18091AC020F
:101CD000882361F520919D0330919E0340919F03DD
:101CE0005091A003EFB7F894FF276091950370918E
:101CF00096038091970390919803E090FA02F090F8
:101D0000FB020091FC021091FD026E0D7F1D801FF1
:101D1000911FEFBF20939D0330939E0340939F0339
:101D20005093A0031092AC020E9433030E947E02E3
:101D30000E94060C7DC20E947E025B016C018FB77F
:101D4000F8949927109277038FBF8091A20281FFA8
:101D500026C080919A0290919B02A0919C02B09122
:101D60009D02A6019501281B390B4A0B5B0BDA017A
:101D7000C90120919E0230919F024091A002509192
:101D8000A102281B390B4A0B5B0B2F3F6FEF360765
:101D90006FEF46076FE7560711F061E005C02FEFC0
:101DA0003FEF4FEF5FE760E08091AB0281FF24C01F
:101DB0008091A3029091A402A091A502B091A602E5
:101DC00086017501E81AF90A0A0B1B0BD801C70135
:101DD000E090A702F090A8020091A9021091AA0237
:101DE000E81AF90A0A0B1B0BE216F306040715079B
:101DF0001CF4A801970103C0662309F419C2121646
:101E00001306140615060CF00FCF20939D03309394
:101E10009E0340939F035093A00381E08093AC0204
:101E2000C601B5010E94330303C290917D03892F3F
:101E30008450823010F410927D03943009F0F8C180
:101E40000E947E02AB01BC01EE2404EC19E020E00C
:101E500030E081E00E94BE04EBC18FB7F89499276F
:101E6000209194038FBF80917D03823011F422234F
:101E700039F08091BA038F5F8093BA03863020F0E7
:101E800083E080937D033CC08FB7F894992720911D
:101E900076032F5F209376038FBF209174033091D8
:101EA00075033093E7022093E60280917303882341
:101EB000B9F490E08091F302882309F491E099232A
:101EC00079F03093A2032093A10381E08093730300
:101ED00086EB93E20E945B020E94B00482E007C09E
:101EE0008091BA03853011F483E001C081E08093D2
:101EF0007D030E94F20B80917D03833009F098C12D
:101F000010927D0320917403309175038091020239
:101F1000882309F08DC10091AE021091AF02021723
:101F2000130709F085C11092AF021092AE020E9411
:101F30003107025B124009F07BC11092AD0278C1FB
:101F40008FB7F894282F332780918E03882309F4C4
:101F50006ECEE0918003FF27EE0FFF1FED59FC4F7F
:101F6000A081B1812FBF7C91FD0182858F3399F5CE
:101F70006385878126819927582F44273327422B51
:101F8000532B8FB7F89499272091030230910402C4
:101F90008FBF4217530719F04F5F5F4FE1F4663070
:101FA000D1F47F30C1F49D01235F3F4FFD01858552
:101FB00080FF02C0129801C0129AF901808181FF4E
:101FC00002C0119801C0119AF901808182FF02C0FC
:101FD000109801C0109A9FB7F89480918003E82F61
:101FE000FF27EE0FFF1FED59FC4FB183A0838F5FDA
:101FF00080938003833010F01092800380918E03D1
:10200000815080938E03892F99278FBF99CF80911C
:102010009903813009F40DCE823009F009C1809115
:10202000A2028D7F8093A20203C1FFB7F983F894C7
:10203000209001033090020340900303509004036A
:102040006624772488243EE4A32E23E8B22ECC24F1
:10205000DD24EE24FF2400E010E0222D332D442D5A
:10206000552D662D772D882D90E00E94D4122A835D
:102070003B834C835D836E837F8388879987822E21
:10208000932EA42EB52E2401350100E20E94D21316
:10209000A22EB32EC42ED52EA3019201569547959C
:1020A000379527952A0D3B1D4C1D5D1D57FF05C01B
:1020B0005F772F5F3F4F4F4F5F4F20930103309368
:1020C00002034093030350930403E9808E2D992764
:1020D0008FBF8FB7F894992730939C0320939B036D
:1020E00013C08FB7F89499271092B1021092B002E2
:1020F00010926A03109269031092900310928F035A
:102100001092F9021092F8028FBF92C02FB7F89484
:10211000332780918B038093080282E080930C0226
:102120002FBF80910802882309F082C0209A289A44
:1021300080917E03882309F075C08EEF91E00197AE
:1021400001960197E1F716982F9886E090E00197A5
:1021500001960197E1F7169A289883EC8EBD0DB48D
:1021600007FEFDCF8EB51EBC0DB407FEFDCF8EB5AC
:10217000289A289882EC8EBD0DB407FEFDCF8EB54F
:1021800088E08EBD0DB407FEFDCF8EB5289A8EEF88
:1021900091E0019701960197E1F728988EEC8EBDAA
:1021A0000DB407FEFDCF8EB58DE48EBD0DB407FED8
:1021B000FDCF8EB5289A289889EC8EBD0DB407FE08
:1021C000FDCF8EB587EC8EBD0DB407FEFDCF8EB56D
:1021D000289A289885EC8EBD0DB407FEFDCF8EB5EC
:1021E00080E88EBD0DB407FEFDCF8EB5289A109203
:1021F00000038BE08093B703289888EC8EBD0DB464
:1022000007FEFDCF8EB58BE68EBD0DB407FEFDCF6C
:102210008EB5289A2F9A81E080937E0380E00E94F9
:10222000C00006C00E94110D03C0550F41E013CD40
:1022300029960FB6F894DEBF0FBECDBFDF91CF91C8
:102240001F910F91FF90EF90DF90CF90BF90AF90D4
:102250009F908F907F906F905F904F903F902F90C6
:1022600008958091A5038F3FB1F0282F3327F901FE
:10227000E555FC4F80818093A5038F3F11F4809337
:10228000B6038FEF80832F3F31F0822F0E94D00D55
:1022900081E090E0089580E090E00895CFEFD1E2F2
:1022A000DEBFCDBF1FB7F8944BE050E06FEF70E09A
:1022B0008BEA93E00E9455148FEF8093A5038093DF
:1022C000B60356985E9854985C9880916F008F7D05
:1022D00080936F00209A289A279A2F980E9A169A20
:1022E00085E093E09093E9028093E8021092FF0268
:1022F0008AE58093B90381E08093810080E2809336
:10230000B60083E08093B1008091840090918500B5
:102310004AE720918400309185002817390708F496
:102320004150442311F0C901F4CF9091B200809143
:10233000B2008917E1F320918400309185009091DB
:10234000B2008091B2008917E1F3809184009091EE
:102350008500821B930B4096B5E096958795BA95BC
:10236000E1F790937903809378031092B100809104
:10237000B10080938100809181008093B60010921B
:10238000B20010928500109284008FEF87BB87B354
:1023900086BB8091B6008571E1F70A9A099A089A7E
:1023A000129A119A109A18B88FEF87B90C9814984E
:1023B000109285001092840080916F00816080935C
:1023C0006F0080918100887F82608093810081E02E
:1023D00085BF0E9431118823E1F78FEF8093B80306
:1023E00080E00E94DD0420910002309101022F5F05
:1023F0003F4FC901AA27BB27809301039093020393
:10240000A0930303B09304038091B600806280938D
:10241000B6008091B60081FDFCCF82E08093B000D1
:102420008091B60080FDFCCF83E08093B100809165
:10243000B60083FDFCCF86EE8093B30080917000E0
:102440008260809370000E94A7028FEF9FEF9093AD
:1024500082038093810390938403809383039093FA
:1024600086038093850390938803809387039093DA
:102470008A0380938903809100028295807F8093F4
:10248000A3038DE092E090936403809363038F969F
:1024900090936603809365038BE692E090936803C4
:1024A000809367030E9431118823E1F7812F9927D8
:1024B0008FBF78940E94940D8FB7F894482F5527BA
:1024C00058C080917000992783709070892B19F4FF
:1024D000E5E0F0E014C08091B6008A71E1F78091E8
:1024E000B3009091B200891B8C3038F08091B2001B
:1024F000853F18F4E3E0F0E002C0E2E0F0E0809114
:102500006E00867009F580916F008E72E9F48091FB
:1025100071008E72C9F40CB407FC16C08091C10022
:10252000807C91F48091C900807C71F48091BC0022
:1025300082FD0AC080917A0087FF03C081E090E0AD
:1025400005C085E090E002C080E090E023B78E17E0
:1025500008F4E82FFF27E453FF4FC895E02D207FB4
:102560002160E22BE3BF78948895F89483B78E7F3F
:1025700083BF8091A5038F3F09F4A3CF282F332772
:10258000F901E555FC4F80818093A5038F3F11F43D
:102590008093B6038FEF80832F3F09F492CF4FBF14
:1025A000822F0E94D00D88CFACE2B0E0EAEDF2E1DC
:1025B0000C948F14222E332E442E552E662E772EF9
:1025C000882E992EFE013196A8E01192AA95E9F77E
:1025D00029823A824B825C826D827E828F829886CB
:1025E000FE013996B8E01192BA95E9F7A986BA8644
:1025F000CB86DC86ED86FE860F87188B89819A81D3
:10260000AB81BC8189A79AA7ABA7BCA77C018D0130
:102610008FEF9FEFA0E0B0E0E822F9220A231B230E
:1026200089A59AA5ABA5BCA51D014424552489857F
:102630009A85AB85BC858DA39EA3AFA3B8A75C018B
:102640006D018FEF9FEFA0E0B0E0A822B922CA226F
:10265000DB228DA19EA1AFA1B8A53D0188249924BC
:10266000C801B701A60195010E94701469A37AA35D
:102670008BA39CA3C801B701A40193010E9470140D
:102680007B018C01C201B101A60195010E94701469
:102690005B016C01C201B101A40193010E9470149D
:1026A0003B014C01EA0CFB1C0C1D1D1D89A19AA1CC
:1026B000ABA1BCA19D01442755272E0D3F1D401FF6
:1026C000511F2A153B054C055D0540F480E090E064
:1026D000A1E0B0E0680E791E8A1E9B1ECA01AA27DF
:1026E000BB27860D971DA81DB91D8D8F9E8FAF8F9F
:1026F000B8A3A9013327222789A19AA1ABA1BCA124
:10270000A070B070280F391F4A1F5B1F298F3A8FA6
:102710004B8F5C8FA98CBA8CCB8CDC8CED8CFE8CB7
:102720000F8D18A1FE01719698E011929A95E9F724
:10273000ED8AFE8A0F8B188F2D813E814F8158853F
:102740006DA17EA18FA198A50E9470143B014C0140
:102750002D853E854F85588969A57AA58BA59CA5B1
:102760000E9470142D893E894F89588D260F371F7E
:10277000481F591F260D371D481D591D2D8B3E8B97
:102780004F8B588F6D887E888F88988C2A2D3B2D93
:102790004C2D5D2D662D772D882D992DE2E1AC967F
:1027A0000C94AB14A0E1B0E0E8EDF3E10C948F14CD
:1027B000222E332E442E552E662E772E882E992EBD
:1027C000002309F466C088E0FE01319611928A95D3
:1027D000E9F729833A834B835C836D837E838F8201
:1027E0009887E0E2E01B1E16CCF52D813E814F81DB
:1027F0005885602F772767FD7095DA01C901062E8D
:1028000004C0B695A795979587950A94D2F78D87BA
:102810009E87AF87B88B04C0220F331F441F551FFC
:10282000EA95D2F789819A81AB81BC8104C0B695C3
:10283000A795979587956A95D2F7282B392B4A2B20
:102840005B2B29873A874B875C8729843A844B84A2
:102850005C846D847E848F8498881BC01D861E8650
:102860001F86188A2E2F332727FD30953095219506
:102870003F4F8D819E81AF81B88504C0B695A795E5
:10288000979587952A95D2F789879A87AB87BC87D2
:10289000DCCF222D332D442D552D662D772D882DFF
:1028A000992DE2E160960C94AB14DC0101C06D93AC
:1028B00041505040E0F70895AA1BBB1B51E107C0EF
:1028C000AA1FBB1FA617B70710F0A61BB70B881FC0
:1028D000991F5A95A9F780959095BC01CD0108954F
:1028E000629FD001739FF001829FE00DF11D649FF4
:1028F000E00DF11D929FF00D839FF00D749FF00D80
:10290000659FF00D9927729FB00DE11DF91F639F20
:10291000B00DE11DF91FBD01CF01112408952F92C3
:102920003F924F925F926F927F928F929F92AF925F
:10293000BF92CF92DF92EF92FF920F931F93CF93AC
:10294000DF93CDB7DEB7CA1BDB0B0FB6F894DEBF43
:102950000FBECDBF09942A88398848885F846E8469
:102960007D848C849B84AA84B984C884DF80EE80B3
:10297000FD800C811B81AA81B981CE0FD11D0FB6BC
:0E298000F894DEBF0FBECDBFED010895FFCF6E
:0A298E00010001010022FFFFFF001D
:00000001FF
